:0E0000000C9440000C9400000C9400000C9432
:10000E0000000C9400000C9400000C9400000C9462
:10001E0000000C9400000C9400000C9400000C9452
:10002E006D000C9400000C9400000C9400000C94D5
:10003E0000000C9400000C9400000C9400000C9432
:10004E0000000C9400001027E80364000A00010071
:10005E0000100001100001000000000080C001002F
:10006E0002006600020008006800020079016A00C2
:10007E000000F894EE27ECBBF1E0FBBFEBBFE5BF51
:10008E008DE0A2E0BB27ED938A95E9F780E094E03E
:10009E00A0E6ED930197E9F7ECE6F0E085919591F6
:1000AE00009761F0A591B59105901590BF01F001F3
:1000BE0005900D920197E1F7FB01F0CFEFE5EDBF53
:1000CE00E4E0EEBFC0E6D1E00C947D01AA93EA9382
:1000DE00FA93EFB7EA931A930A931BB10CB1E12F7F
:1000EE00EC71E9F4E0917601EF5FE0937601E15077
:1000FE00F0E0E259FE4F0083A0917601A83019F48A
:10010E00E0E0E0937601A0917801AF5FA0937801D3
:10011E00A83029F4E0E0E0937801689420F8099182
:10012E001991E991EFBFF991E991A99118951A9357
:10013E00E0917801E030E1F3E0917701EF5FE09339
:10014E007701E150F0E0E259FE4F1081A091770166
:10015E00A83019F4E0E0E0937701F894E09178018B
:10016E00E150E09378017894E12F19910895BA93B4
:10017E00AA93E881F981E0936601F0936701EA8121
:10018E00FB81E0936801F0936901EE81FF81E093BA
:10019E006A01F0936B01EC81FD81E0936C01F093A9
:1001AE006D01F401AE81BF81EA0FFB1FEE83FF8369
:1001BE00F401AC81BD81EA0FFB1FEC83FD83F401DA
:1001CE00A881B981EA0FFB1FE883F983F401AA81A4
:1001DE00BB81EA0FFB1FEA83FB83A881B981A030A4
:1001EE00E1E0BE0724F0EFEFF0E0E883F983AA81A7
:1001FE00BB81A030E1E0BE0724F0EFEFF0E0EA8330
:10020E00FB83AC81BD81A030E1E0BE0724F0EFEFAF
:10021E00F0E0EC83FD83AE81BF81A030E1E0BE074C
:10022E0024F0EFEFF0E0EE83FF83A881B981A130D7
:10023E00EFEFBE0724F4E1E0FFEFE883F983AA8134
:10024E00BB81A130EFEFBE0724F4E1E0FFEFEA83BC
:10025E00FB83AC81BD81A130EFEFBE0724F4E1E05A
:10026E00FFEFEC83FD83AE81BF81A130EFEFBE07C0
:10027E0024F4E1E0FFEFEE83FF83AF81AA231AF0AF
:10028E00C298EE8103C0C29AEE81E150ECBFAD81FF
:10029E00AA2322F09298EC81FD8105C0929AEC81FE
:1002AE00FD81E150FF4FF9BDE8BDAB81AA2322F0DD
:1002BE009398EA81FB8105C0939AEA81FB81E15014
:1002CE00FF4FFBBDEABDA981AA231AF09698E881DB
:1002DE0003C0969AE881E150E3BD28960895AB9A43
:1002EE00A4E6B0E00E946304AB980895E0E0EABB98
:1002FE00EBBBEFEFE7BBE0E0E8BBE8E0E4BBE0E040
:10030E00E5BBEFEFE1BBE0E0E2BBEBE6E3BFE0E035
:10031E00E2BFECBFE1EAEFBDEBE0EEBDE0E0EDBD2C
:10032E00ECBDE7BDE6BDEBBDEABDE9BDE8BDE2BD96
:10033E00ECE6E5BDE0E0E4BDE3BDE9BFE5BFE4BF4B
:10034E00EBB9E8E9EAB9E6E8E0BDE0E0E0BDE3E3F9
:10035E00E9B9E0E8E8B9E0E4E7B9E7E8E6B9E0E0F2
:10036E00E0BFEDB9E6BF0E941204A0E10E947B033C
:10037E007894E0E0E0936401E0936501E09164011C
:10038E00F09165013097D1F4D2DEEB34B1F4CFDECB
:10039E006E2E77240E94AA035F010E94AA036F01AA
:1003AE000E94AA030E94AF03EA0FFB1F4F01E1E078
:1003BE00F0E0E0936401F0936501E0CF809262017A
:1003CE0090926301E3E5F0E03F01E4E6F0E02F01F7
:1003DE00AEDEEB3419F56092640170926501A7DE12
:1003EE006E2E7724EFEFF0E0E615F70521F460901E
:1003FE006401709065010E94AA035F010E94AA0326
:10040E006F010E94AA030E94AF03AE0FBF1FE091BF
:10041E006201F0916301AE1BBF0B4D01E0E8F0E00D
:10042E00E815F90524F4EFEFF0E08E1A9F0AE0E8E4
:10043E00FFEF8E169F0624F4F401E150FF4F4F019B
:10044E00F4010E946D044F01E0E0EA93A0E00ED1AA
:10045E0000248014900454F0ABE227D1D4010E9402
:10046E00C503D4010E94D203D4010CC0ADE21DD14C
:10047E000E94DF030E94C5030E94DF030E94D20385
:10048E000E94DF03EAE0F0E00E949B04E05DAE2FE5
:10049E000CD1E2EEFFEFE815F9052CF4EEE1F0E0F9
:1004AE008E169F060CF005C0F4010E9471044F01D8
:1004BE0002C0880C991CE0E0EA93A1E0D7D0A62DEB
:1004CE00F4D0E8E5F0E0E615F70521F4E8E7F0E012
:1004DE002F01AAC0E9E5F0E0E615F70521F4EFEFEC
:1004EE00F0E02F01A1C0E6E4F0E0E615F70531F4E7
:1004FE005A924A920E94E403DF0195C0E5E4F0E0CF
:10050E00E615F70539F40E94EF03FA93EA93A0E09B
:10051E00B0E089C0E2E5F0E0E615F70531F40E949F
:10052E00E403FA93EA93D2017EC0E3E4F0E0E61529
:10053E00F70541F40E94F9030E94FE030E94F9039D
:10054E00D20171C0E7E4F0E0E615F70541F40E9430
:10055E00FE03FA93EA935A924A92D20164C0EAE5F4
:10056E00F0E0E615F70549F40E94FE030E94F90338
:10057E005A924A92A0E0B0E056C0ECE4F0E0E615E4
:10058E00F70541F40E94FE035A924A925A924A92F9
:10059E00DF0149C0E1E5F0E0E615F70531F40E9410
:1005AE00F9030E94EF03DF013EC0EDE6F0E0E61531
:1005BE00F70529F0EDE4F0E0E615F70511F48FDE0E
:1005CE0033C0EEE4F0E0E615F70511F4C49A2CC042
:1005DE00EEE6F0E0E615F70511F4C49825C0E3E564
:1005EE00F0E0E615F70549F40E94F9030E94F903BD
:1005FE000E94F903A0E0B0E016C0E0916A01F0910C
:10060E006B01FA93EA93E0916C01F0916D01FA930C
:10061E00EA93E0916801F0916901FA93EA93A0914F
:10062E006601B0916701A3DDD3CEFFCFAA93E5B3E8
:10063E00EF70AE2FE881E07FEA2BE5BB8DE08A9567
:10064E00F1F7AA9A8DE08A95F1F7AA988DE08A952E
:10065E00F1F777C0AA93A881E9DFE881E295E883F4
:10066E00A881E4DF85E88A95F1F76BC0AA93E8814B
:10067E00F0E0E758FE4FE081A981AE0FEBDFE98194
:10068E00E0937D01E881E0937E0122960895A2E039
:10069E000E940404ACE0DEDFA1E00E940404E0E06E
:1006AE00E0937E01E0937D010895AA93A881AA307C
:1006BE0031F0E0917F01A0917D01AE1758F0E0E09E
:1006CE00EA93A0917E01AF5FA0937E01CFDFA88158
:1006DE00AA30B9F1E0917D01EF5FE0937D01A89A18
:1006EE00A881B8DFA8982DC0AA93E4B3E06FE4BB4D
:1006FE00A29AA09AA19AAA98A898A998E881E0939C
:10070E007F01E058E0937B01E881E054E0937C01A7
:10071E00A4E1B0E00E9463040E940A040E940A044D
:10072E000E940A04A0E282DF88EC90E00197F1F7C4
:10073E00A8E290DFA4E08EDFA5E88CDFA6E08ADFDA
:10074E00A6DF219608950E949E00F0E0F09708958E
:10075E00E0936001F0936101F501A4E6B0E00E9420
:10076E007E04BF01F601AAE0B0E00E947E04E60F0F
:10077E00F71FA0916001B09161010895E4E6F0E0E9
:10078E000E949604DF01EAE0F0E00E949B04E05D27
:10079E00AE2F0C945C03EAE0F0E00E949604DF01B9
:1007AE00EAE0F0E00E949B04E05DAE2F0C945C0347
:1007BE00F4010E946D04DF0108955A924A92F201EB
:1007CE000E946D04FA93EA93F2010E946D0408955B
:1007DE005A924A92E0E0F0E0FA93EA93F2010E9414
:1007EE006D040895E0E0F0E0FA93EA930895F201C3
:1007FE000E946D04FA93EA9308950E943103A3E0D8
:10080E00B0E00C946304A0E30E941D0388EC90E01A
:10081E000197F1F70895C098C198B89AB99815C084
:10082E00B998B898EE270000B19B0895B09B089533
:10083E0004D0B99A02D0B89AE1E06DE007C0B99A37
:10084E00B89A03D0B898F9DFB9986BE16A95F1F7C9
:10085E00089578E0B898F1DFB09BFECFEEDF889474
:10086E00B1990894B89AF1DFEE1F7A9599F77A2F1D
:10087E00772311F4B99801C0B99ADFDFB898E5DF94
:10088E00B89ADBDFB998D9CF78E0AA0F10F4B998EF
:10089E0001C0B99ADADFB898D0DFB09BFECFCDDFBA
:1008AE00B89A7A9591F7B998C8DFB898CEDFE1E09B
:1008BE00B199EE27B89AC1CF109639F080ED97E036
:1008CE000197F1F7A8951197C9F70895F195E1955C
:1008DE00F0400895EE0FFF1FEE0FFF1F0895FA9FD1
:1008EE00F02DEB9FF00DEA9FE02DF10D08952AD02B
:1008FE00F6DF0EF4EBDF08950024112490E1AA0F29
:10090E00BB1F001C111C0E1A1F0A18F40E0E1F1E00
:10091E0001C0A1609A9599F7FD01D001089512D0FA
:10092E00EBDF0EF4D3DF0895E894B7FF04C0A09573
:10093E00B09511966894F7FDC9DFDEDFFD010EF468
:10094E00C5DF0895E894F7FF02C0C0DF6894B7FFD3
:10095E0006C0A095B095119600F8039400FA08957C
:00000001FF
