:060000000C943F000C947B
:1000060000000C9400000C9400000C9400000C946A
:1000160000000C9400000C9400000C9400000C945A
:1000260000000C9400000C9400000C9400000C944A
:1000360000000C9400000C9400000C9400000C943A
:1000460000000C9400000C9400000C940000FF00CB
:10005600000000000000930048005400583D00597D
:100066003D0080C008000400540001006F016000DC
:100076000200710168000000F894EE27ECBBF1E085
:10008600FBBFEBBFE5BF8DE0A2E0BB27ED938A95F2
:10009600E9F780E094E0A0E6ED930197E9F7EAE658
:1000A600F0E085919591009761F0A591B591059045
:1000B6001590BF01F00105900D920197E1F7FB0144
:1000C600F0CFEFE5EDBFE4E0EEBFC0E6D1E00C9483
:1000D60013011A930E945502A8EA0E948902E09130
:1000E6007001AE2F0E948902A0916F010E948902C1
:1000F6000E945502A9EA74D119910895AA931A93F8
:100106000E945502A0EC0E948902A9810E948902E0
:100116000E945502A1EC64D11881F5C06BD1AA3AB0
:1001260009F053C067D1A53509F04FC0D2DFD1DF42
:10013600F0E066D1AFEFEA9FF001A0916601B091C1
:100146006701EA0FFB1F5CD1F0E060D1AFEFEA9FD9
:10015600F001A0916801B0916901EA0FFB1F56D129
:10016600CE2EDD2459D1CE0EDF1EB3DFF0E0E093B4
:100176006001F093610150D154D1EA0FFB1FE09367
:100186006001F0936101A5DFF0E0E0936201F09376
:10019600630142D1A0916201B0916301EA0FFB1F96
:1001A600E0936201F093630194DFF0E0E093640171
:1001B600F093650131D1A0916401B0916501EA0F18
:1001C600FB1FE0936401F0936501E5E0EA93A1E08B
:1001D6008BD02CD132D12AD13AD1A1E085D03FD1D2
:1001E60043D13DD144D13BD1EAE0F0E030D1A0E0AB
:1001F6007BD0A2E6B0E0B5D0D60136D1D60137D154
:10020600D60138D1E5E0EA93A0E06ED0A5E6B0E0ED
:10021600A8D007D129D105D12AD103D12BD1089550
:10022600E0E0EABBEBBBE8EFE7BBE0E0E8BBE8E019
:10023600E4BBE0E0E5BBEFEFE1BBE0E0E2BBEBE611
:10024600E3BFE0E0E2BFECBFE1EAEFBDEBE0EEBD0D
:10025600E0E0EDBDECBDE7BDE6BDEBBDEABDE9BD49
:10026600E8BDE2BDECE6E5BDE0E0E4BDE3BDE9BF27
:10027600E5BFE4BFEAB9E0E8E8B9E0E4E7B9E6E8F3
:10028600E6B9E0E0E0BFEDB9E6BF0E945002A0E1AA
:100296007BD0A8EBBBE00E94A102A1E02FDFAE2E2F
:1002A600BB243CDFFECFFFCFAA93E5B3EF70AE2FA2
:1002B600E881E07FEA2BE5BB8DE08A95F1F7AA9A03
:1002C6008DE08A95F1F7AA988DE08A95F1F786C0B8
:1002D600AA93A881E9DFE881E295E883A881E4DFB3
:1002E60085E88A95F1F77AC0AA93E881F0E0EF589D
:1002F600FE4FE081A981AE0FEBDFE981E093750146
:10030600E881E093760122960895A2E0BAD0ACE0A7
:10031600DFDFA1E0B6D0E0E0E0937601E09375017F
:100326000895AA93A881AA3031F0E0917701A091AF
:100336007501AE1760F0E0E0EA93A0917601AF5F39
:10034600A0937601D1DFA881AA3009F447C0E091D5
:100356007501EF5FE0937501A89AA881B9DFA898A7
:100366003DC0BA93AA931A93E981FA813196E9833B
:10037600FA833197E4911E2FE03019F0A12FD1DFD7
:10038600F3CF188123960895AA93E4B3E06FE4BBF4
:10039600A29AA09AA19AAA98A898A998E881E09307
:1003A6007701E058E0937301E881E054E09374012B
:1003B600A4E1B0E00E94A10269D068D067D0A0E2B3
:1003C60073DF88EC90E00197F1F7A8E281DFA4E003
:1003D6007FDFA5E87DDFA6E07BDF97DF2196089526
:1003E6000E948902A0E00E946E021E2F0E946402F3
:1003F600E12F08956EDEE0936A01A0916A010895E7
:10040600E0936601F09367010C946C00E093680139
:10041600F09369010C946C005CDEAFEFEA9FF0018B
:100426000895A0916001B09161010895A0916B01BA
:10043600B0916C01EAE0F0E008950E94C202DF018B
:10044600EAE0F0E00E94C702E05DAE2F6ACF0E94AC
:10045600C702E05DAE2F65DFE0E0EA930895A09164
:100466006D01B0916E010895E4E6F0E0E6CFEAE0B2
:10047600F0E0E3CFEAE0F0E00E94C702E05DAE2FD5
:1004860050CF26DFA3E0B0E00C94A102A0E30CDF7E
:1004960088EC90E00197F1F70895C098C198B89A52
:1004A600B99815C0B998B898EE270000B19B089581
:1004B600B09B089504D0B99A02D0B89AE1E06DE0F5
:1004C60007C0B99AB89A03D0B898F9DFB9986BE122
:1004D6006A95F1F7089578E0B898F1DFB09BFECF02
:1004E600EEDF8894B1990894B89AF1DFEE1F7A95F9
:1004F60099F77A2F772311F4B99801C0B99ADFDFFB
:10050600B898E5DFB89ADBDFB998D9CF78E0AA0FBB
:1005160010F4B99801C0B99ADADFB898D0DFB09B69
:10052600FECFCDDFB89A7A9591F7B998C8DFB8981B
:10053600CEDFE1E0B199EE27B89AC1CF109639F037
:1005460080ED97E00197F1F7A8951197C9F70895FF
:10055600F195E195F04008950024112490E1AA0F49
:10056600BB1F001C111C0E1A1F0A18F40E0E1F1EAC
:1005760001C0A1609A9599F7FD01D001089512D0A6
:10058600EBDF0EF4E5DF0895E894B7FF04C0A0950D
:10059600B09511966894F7FDDBDFDEDFFD010EF402
:1005A600D7DF0895E894F7FF02C0D2DF6894B7FF5B
:1005B60006C0A095B095119600F8039400FA089528
:00000001FF
