:0C0000000C9456000C9400000C940000BE
:10000C000C9400000C9400000C9400000C94000064
:10001C000C9400000C9400000C9400000C94000054
:10002C000C9400000C9400000C9400000C94000044
:10003C000C9400000C9400000C940A070C94000023
:10004C000C9400000C9400000000FF000000000065
:10005C000000930048005400583D00593D00070033
:10006C0080C001002D4E414E00494E46000001005B
:10007C000200540008000400560001006E015E00EE
:10008C000100700160000100790162000100620151
:10009C006A00020087016C0001008E016E000000F6
:1000AC00F894EE27ECBBF1E0FBBFEBBFE5BF8DE0B6
:1000BC00A2E0BB27ED938A95E9F780E094E0A0E6F7
:1000CC00ED930197E9F7EAE7F0E0859195910097B8
:1000DC0061F0A591B59105901590BF01F0010590C7
:1000EC000D920197E1F7FB01F0CFEFE5EDBFE4E0F6
:1000FC00EEBFC0E6D1E00C94E9031A930E947D0A8E
:10010C00A8EA0E94B10AE0917A01AE2F0E94B10ACE
:10011C00A09179010E94B10A0E947D0AA9EA0E946D
:10012C00100919910895AA931A930E947D0AA0ECC4
:10013C000E94B10AA9810E94B10A0E947D0AA1EC19
:10014C000E9410091881D2C1A1E0EDDFF0E0EA199C
:10015C00FB094F01E0E8F0E0E815F9052CF4EFEFAE
:10016C00F0E08E1A9F0A09C0E0E8FFEF8E169F069A
:10017C0024F4F401E150FF4F4F010024801490044B
:10018C0074F0EBE00E941A09ABE20E94AE08D401B5
:10019C000E941E09D4010E942B09D40110C0EBE06F
:1001AC000E941A09ADE20E94AE080E9438090E9412
:1001BC001E090E9438090E942B090E943809EAE0A6
:1001CC00F0E00E943D09EEE1F0E08E169F062CF463
:1001DC00E2EEFFEFE815F9050CF003C0880C991C52
:1001EC0001C04401F401AFEFBFEF0E94E90C4F01D5
:1001FC000895BA93AA93F401AE81BF81EA0FFB1F55
:10020C00EE83FF83F401AC81BD81EA0FFB1FEC830D
:10021C00FD83F401A881B981EA0FFB1FE883F98300
:10022C00F401AA81BB81EA0FFB1FEA83FB83AE8139
:10023C00BF81A030E1E0BE0724F0EFEFF0E0EE83E9
:10024C00FF83AE81BF81A130EFEFBE0724F4E1E064
:10025C00FFEFEE83FF83AC81BD81A030E1E0BE07F0
:10026C0024F0EFEFF0E0EC83FD83AC81BD81A13095
:10027C00EFEFBE0724F4E1E0FFEFEC83FD83AA81EE
:10028C00BB81A030E1E0BE0724F0EFEFF0E0EA83A1
:10029C00FB83AA81BB81A130EFEFBE0724F4E1E020
:1002AC00FFEFEA83FB83A881B981A030E1E0BE07B0
:1002BC0024F0EFEFF0E0E883F983A881B981A13055
:1002CC00EFEFBE0724F4E1E0FFEFE883F983AE81A2
:1002DC00BF810E94510D1CF49398EE8103C0939A38
:1002EC00EE81E150E3BDAC81BD810E94510D24F43F
:1002FC009298EC81FD8105C0929AEC81FD81E150D0
:10030C00FF4FFBBDEABDAA81BB810E94510D24F4B5
:10031C009198EA81FB8105C0919AEA81FB81E150B9
:10032C00FF4FF9BDE8BDA881B9810E94510D1CF4A5
:10033C009098E88103C0909AE881E150ECBF0C944E
:10034C007206BA93AA93E881F981309741F45A92D4
:10035C004A920E9443090E944909DF014ADFA881A1
:10036C00B981119751F40E944F090E9449090E94CA
:10037C0049090E945709DF013CDFA881B981129716
:10038C0021F40E945D090E946209A881B98113972A
:10039C0051F40E9443090E9457090E9449090E9486
:1003AC006809DF0126DFA881B981149731F40E9416
:1003BC0043090E9449090E947009A881B9811597C7
:1003CC0051F40E9475090E9449090E9449090E9432
:1003DC0057090E947009A881B981169741F4E0E091
:1003EC00F0E00E9449090E947B090E947009A881D3
:1003FC00B981179761F40E9480090E945709FA93FA
:10040C00EA937A936A930E9475090E947009A881F5
:10041C00B981189731F40E9485090E948B09D20189
:10042C00E8DEA881B981199751F40E9485090E94D0
:10043C005709FA93EA930E944F09DF01DADEA8818B
:10044C00B9811A9751F4F2010E94D00C0E947B09D9
:10045C000E948B09A0E0B0E0CCDEA881B9811B978B
:10046C0069F40E9480090E9468090E948B09DB01D3
:10047C00E2E0F0E00E94010DDF01BBDEA881B98152
:10048C001C9741F40E9485095A924A925A924A92B8
:10049C00DF01AFDEA881B9811D9761F40E9480094C
:1004AC000E945709FA93EA930E944F09FA93EA9330
:1004BC00DB019FDEA881B9811E9741F4E0E0F0E0FA
:1004CC00FA93EA930E945D09DF0193DEA881B9815A
:1004DC001F9761F40E947509FA93EA930E944309ED
:1004EC000E9457090E944909DF0183DE2296089574
:1004FC000E949009AA3A09F060C00E949009A535A3
:10050C0009F05BC0FADDF9DDF0E00E949709AFEF6E
:10051C00EA9FF001A0916901B0916A01EA0FFB1FFB
:10052C000E949709F0E00E949D09AFEFEA9FF0014D
:10053C00A0916B01B0916C01EA0FFB1F0E949D0909
:10054C00CE2EDD240E94A309CE0EDF1ED6DDF0E0F8
:10055C00E0936301F09364010E94A3090E94A9092E
:10056C00EA0FFB1FE0936301F0936401C6DDF0E03A
:10057C00E0936501F09366010E94A309A0916501C7
:10058C00B0916601EA0FFB1FE0936501F0936601E1
:10059C00B4DDF0E0E0936701F09368010E94A309D9
:1005AC00A0916701B0916801EA0FFB1FE09367010E
:1005BC00F0936801E1E0E0937801E0916D01E030A7
:1005CC0011F0E1E001C0E0E0E09378010E94A9099C
:1005DC00E0917001F09171010E94AE09E0916E0101
:1005EC00F0916F01EC19FD090E94B7090E94B10648
:1005FC00A0E0B0E084E393E40E94BE09EBEDFFE0E1
:10060C0069E470E40E94340CA2E7B1E00E94250B6F
:10061C00ED93FC93A0917301AA2342F40E94C309A9
:10062C00E859FE4FE0937201F0937301A0917201AF
:10063C00B0917301E8E6F1E0EA1BFB0BE093720169
:10064C00F093730166247724E0E1F0E06E167F06E8
:10065C000CF04DC00E94C8090E94CA090E94790C76
:10066C0011F008F006C0E0E0E0937401E09375012E
:10067C003AC00E94C809E0E0F0E46EEA73E40E941C
:10068C00790C28F0E0937401E09375012CC00E9462
:10069C00C8090E94CF097F936F93FF93EF93F301E7
:1006AC000E94D509AF91BF918F919F910E94790CB7
:1006BC0098F00E94C8090E94CF097F936F93FF9313
:1006CC00EF93F30131960E94D509AF91BF918F91B1
:1006DC009F910E94790C08F006C0F3013196E093CB
:1006EC007401F0937501F30131963F01ADCFA091E8
:1006FC006E01B0916F019396F6010E94AE090E94B3
:10070C00E0097F936F93FF93EF93A0917001B091E9
:10071C007101E0916301F09164010E94AE090E94A5
:10072C00E009AF91BF918F919F910E94960BDF01D1
:10073C00CB010E94990CA6E7B1E00E94250BED932A
:10074C00FC93E5E0EA93A1E00E948F080E94E60981
:10075C000E942B090E94E6090E94EB09E0E0EA9353
:10076C00A1E00E948F080E94EE090E941E090E94BF
:10077C00EE090E942B090E94EE090E94EB09E0E0B1
:10078C000E941A09A4E6B0E00E94CE08D6010E948D
:10079C001E09D6010E942B09D6010E94EB09E5E047
:1007AC000E941A09A7E6B0E00E94CE080E94A9098F
:1007BC000E941E090E94A9090E942B090E94A909E6
:1007CC000E94EB090895E0E0EABBEBBBE8EFE7BB66
:1007DC00E0E0E8BBE4BBE5BBEFEBE1BBE0E0E2BB98
:1007EC00EBE6E3BFE0E0E2BFECBFE1EAEFBDEBE03C
:1007FC00EEBDE0E0EDBDECBDE7BDE6BDEBBDEABD99
:10080C00E9BDE8BDE2BDECE6E5BDE0E0E4BDE3BD7D
:10081C00E9BFE5BFE4BFEAB9E0E8E8B9E0E4E7B96D
:10082C00E7E8E6B9E0E0E0BFEDB9E6BF0E94780A80
:10083C00A0E10E94E108EFEFF0E02F01A0EDB7E09E
:10084C000E94C90AA1E06FDCAE2EBB247DDC50DE19
:10085C00E0917801E03009F464C00E94EE09A634FE
:10086C00E0E0BE070CF059C0E0917401F091750105
:10087C00309719F40E94E6094EC00E94E6091197C0
:10088C0019F40E94E60947C00E94E6091F9719F463
:10089C000E94E60940C00E94E609129719F4A3E0F1
:1008AC00B0E039C00E94E6091E9719F4ADE0B0E043
:1008BC0032C00E94E609139724F00E94E6091797AC
:1008CC000CF004C00E94E609129625C00E94E609AD
:1008DC001A9724F00E94E6091E970CF001C016C06E
:1008EC000E94E609179724F00E94E60919970CF06C
:1008FC0004C00E94E60912960EC00E94E6091997E0
:10090C0024F00E94E6091A970CF006C0A09174011D
:10091C00B0917501129715DD03C00E94E60911DD37
:10092C0008C0E0E0F0E00E947B090E947B090E9475
:10093C0062098CCFFFCF0E943B0D7B816A81F981CC
:10094C00E88177FB770F67FD7160972F9E5781F0D9
:10095C0078F0983190F4AA27BB27882708948795BC
:10096C00B795A7959A95D1F7EA23FB23682305C081
:10097C00E8947727EE27FF2766276F77769508F49C
:10098C00606877F9A991B99189919991EA17FB0758
:10099C006807790797FB08950E94F3090E94A10448
:1009AC000E94F80919F40E94FB09D3C1E6F70E94D2
:1009BC00FE090E948F0BCDC10E943B0D24971A9308
:1009CC000A930E94040A0E94550D2CF0EFEFFFEFE2
:1009DC006FE77FEF6FC00E94090A0E94360DADB71A
:1009EC00BEB711971F930F930E94D30A0F911F91BB
:1009FC000E940E0A0E94040AE3EFF4E065E37FE331
:100A0C000E94790C40F40E94130A0E94960B0E94DB
:100A1C000E0A015010400E94150A0E948F0B7F9302
:100A2C006F93FF93EF930E94150A0E94960BAF9160
:100A3C00BF918F919F910E94340C0E940E0A0E94CC
:100A4C00130A0E941B0AA6E2B2E485E69FE30E9409
:100A5C00BE09EEE4F1E164E570E40E94220A0E9412
:100A6C00040A0E94E60B7F936F93FF93EF930E940F
:100A7C00270AADE4B1E184ED9FE30E948F0BAF91A7
:100A8C00BF918F919F910E94340C7F936F93FF9332
:100A9C00EF93F8010E94DC0C0E945C0BA8E1B2E71A
:100AAC0081E39FE30E94E60BAF91BF918F919F91E1
:100ABC000E94960B198108812A9608950E943B0D7D
:100ACC0028971A930A930E942C0AE0E5FCEA6EEA36
:100ADC0072EC0E94790C18F40E94310A85C0EA85E8
:100AEC00FB856C857D850E944D0D29F4E0E0F0E0DE
:100AFC0060E87FE379C00E942C0AE8E1F2E761EB41
:100B0C0072E40E94790C09F008F405C0EFEFFFEFD6
:100B1C006FE77FE769C00E942C0AEBE3FAEA68EB07
:100B2C007FE30E94E60BEA87FB876C877D870E9438
:100B3C002C0A32DF0E94250B8F010E942C0A0E9486
:100B4C00DC0C0E945C0B0E94220ADF01CB01E0E06E
:100B5C00F0E060E07FE30E94220A0E940E0A0E94ED
:100B6C00130A0E941B0AADE6BCE48CE69DE30E94CE
:100B7C00E60BA6EAB3EE86EE90E40E94960B0E947A
:100B8C00040A0E94E60B0E940E0A0E94270AA8E2A1
:100B9C00BDE886EA91E40E94960BEA83FB836C83A2
:100BAC007D830E94090AAA81BB818C819D810E9450
:100BBC00960BA3EFB4E085EB9FE30E94E60B7F93CB
:100BCC006F93FF93EF930E94040A0E94270A0E94DE
:100BDC008F0BAF91BF918F919F910E94340C0E940B
:100BEC00360DD8010E94E40A198108812E960895C9
:100BFC000E943B0D24970E94360A0E944D0D19F459
:100C0C000E94310AFFC00E943B0A0E94550D84F4D9
:100C1C000E94400A0E944D0D29F4E0E0F0E060E8EB
:100C2C007FE3F0C00E943B0A0E94450A47DFEAC0FE
:100C3C000E94400ADE010E94250B0E94220D0E9498
:100C4C00FB090E945C0BDF01CB010E94400A0E9451
:100C5C005B0D19F00E94310AD5C00E94360A0E9421
:100C6C004C0A0E94450A2ADFE887F9876A877B8746
:100C7C00E881E17019F40E94360AC4C00E94360A59
:100C8C000E94F00ABFC00E943B0D24970E94400AAC
:100C9C000E94510A0E94F8090E94FB09A5E6B0EDDA
:100CAC008BEC90E40E94580A0E94510A7F936F9338
:100CBC00FF93EF930E94FB09A0E0BDE689E291E46B
:100CCC000E94960B0E94610A0E94580AAF91BF9134
:100CDC008F919F910E94340C289608950E94F309DD
:100CEC00EDECF3E164ED7EE30E94790C20F40E94BC
:100CFC00610AC9DF2EC00E94610AEAE7F2E86AE1E4
:100D0C0070E40E94790C09F008F40BC00E94FE09F3
:100D1C000E94640AABEDBFE089EC9FE30E94220ABB
:100D2C0018C00E94FE090E948F0B7F936F93FF9354
:100D3C00EF930E94FE090E94960BAF91BF918F9189
:100D4C009F910E94640AABEDBFE089E49FE30E948F
:100D5C00960B249608950E943B0D24970E94400AFE
:100D6C000E944D0DC9F40E94360A0E944D0D29F4C3
:100D7C00EFEFFFEF6FE77FE745C00E943B0A0E9451
:100D8C00550D2CF4EBEDFFE069EC7FE33BC0EBED94
:100D9C00FFE069EC7FEB36C00E94400A0E943B0AE0
:100DAC000E94340C0E94F809AC81BD818E819F8118
:100DBC000E94550D7CF4AB85AA2322F00E94610A97
:100DCC008DDF20C00E94FB090E944C0A87DF0E9425
:100DDC00F00A18C0AB85AA2362F00E94FB090E949E
:100DEC004C0A7CDFABEDBFE089E490E40E94220A60
:100DFC0009C00E94610A72DFABEDBFE089E490ECA0
:100E0C000E94960B2C9608950A921A92FA926A9363
:100E1C007A938A939A93AA93BA93EA93FA93EFB735
:100E2C00EA930E94600D1091610100916001309174
:100E3C007E0120916201E12FA0917F01B091800190
:100E4C00F0E0EA0FFB1FAF01E1B1E87FE83011F4ED
:100E5C0020E002C0E03119F4E0917B0110C0E831D0
:100E6C0011F0E83221F5031780F4E02F0F5FA09109
:100E7C007C01B0917D01F0E0AE0FBF1FEC91E3B9A6
:100E8C00E6B7EF70E068E6BF11C0E09181011E1774
:100E9C0060F4E0917B01E160E0937B01E89420F841
:100EAC00E6B7EF70E06AE6BFFBC033C0F9C0E035CF
:100EBC0029F4E3B1DA01EC931F5F02C0E03471F462
:100ECC00E0918101E1501E1720F0E6B7EF70E06869
:100EDC0003C0E6B7EF70E06CE6BFE2C0E83529F47A
:100EEC00E3B1DA01EC931F5F02C0E03209F402C0F7
:100EFC00E03309F402C0E83469F4203051F420FEE8
:100F0C0003C0031728F005C0E09181011E1708F4F7
:100F1C0024E0C0C0E83329F422E0E6B7EF70E068C3
:100F2C00BCC0E83611F0E83711F422E005C0E03619
:100F3C0011F0E03791F420E010E0E89420F8E09113
:100F4C008201E03029F421E0E6B7EF70E06803C0DD
:100F5C00E6B7EF70E06CE6BFA3C0E03811F0E03903
:100F6C0029F520FE02C021E095C0E3B1DA01EC9333
:100F7C001F5FE09182011E17B0F4E0918301F091A4
:100F8C008401309711F426E085C0A0E0E091830144
:100F9C00F09184010995E03029F0E6B7EF70E06C30
:100FAC00E6BF7EC002C0689420F802C0E83809F49D
:100FBC0002C0E83929F4E6B7EF70E068E6BF70C00C
:100FCC00E03AA9F4E6B7EF70E06CE6BF689421F85C
:100FDC00E0918301F0918401309739F0A1E0E09128
:100FEC008301F0918401099501C026E059C0E03BD2
:100FFC0011F422E002C0E83AB9F4E0918501F091D5
:10100C008601309759F0A0E0E0918501F0918601BE
:10101C0009953E2FE03011F020E002C026E03AC0E6
:10102C0000E0E89420F802C0E83BE1F420FE02C0A6
:10103C0021E030C0E02F0F5FA0917C01B0917D01C9
:10104C00F0E0AE0FBF1FEC91E3B9031720F4E6B745
:10105C00EF70E06C05C0689420F8E6B7EF70E068BC
:10106C00E6BF1EC0E03C11F0E83C89F4E6B7EF7037
:10107C00E06CE6BFE0918501F0918601309731F08C
:10108C00A1E0E0918501F0918601099507C0E0305F
:10109C0039F423E0E6B7EF70E06DE6BF689421F811
:1010AC0010936101009360012093620130937E01E3
:1010BC000E94670D2696E991EFBFF991E991B991DC
:1010CC00A9919991899179916991F99019900990C7
:1010DC001895AA93E5B3EF70AE2FE881E07FEA2B69
:1010EC00E5BB8DE08A95F1F7AA9A8DE08A95F1F728
:1010FC00AA988DE08A95F1F78BC0AA93A881E9DFB5
:10110C00E881E295E883A881E4DF85E88A95F1F728
:10111C007FC0AA93E881F0E0E957FE4FE081A981F6
:10112C00AE0FEBDFE981E0938B01E881E0938C015A
:10113C0022960895A2E00E946A0AACE0DEDFA1E0EC
:10114C000E946A0AE0E0E0938C01E0938B01089521
:10115C00AA93A881AA3031F0E0918D01A0918B0166
:10116C00AE1760F0E0E0EA93A0918C01AF5FA09322
:10117C008C01CFDFA881AA3009F44AC0E0918B0121
:10118C00EF5FE0938B01A89AA881B7DFA89840C0C5
:10119C00BA93AA931A93E981FA813196E983FA8377
:1011AC003197E4911E2FE03019F0A12FD1DFF3CF4E
:1011BC00188123960895AA93E4B3E06FE4BBA29A36
:1011CC00A09AA19AAA98A898A998E881E0938D0171
:1011DC00E058E0938901E881E054E0938A01A4E1AE
:1011EC00B0E00E94C90A0E94700A0E94700A0E9414
:1011FC00700AA0E26EDF88EC90E00197F1F7A8E2AC
:10120C007CDFA4E07ADFA5E878DFA6E076DF92DF6A
:10121C00219608950E94B10AA0E00E94960A1E2F02
:10122C000E948C0AE12F0895EA93A0E00C948F0899
:10123C00E4E6F0E00E94010DDF01EAE0F0E00E943C
:10124C00060DE05DAE2F0C94AE08EAE0F0E00E94D3
:10125C00010DDF01EAE0F0E00E94060DE05DAE2F2B
:10126C000C94AE08F4010E94D00CDF0108950E948A
:10127C00060DE05DAE2F0C94AE085A924A92F20124
:10128C000E94D00C0895FA93EA93F2010E94D00CBC
:10129C0008955A924A92D201E2E0F0E00E94010DC8
:1012AC000895DF01E2E0F0E00E94010D08955A92EA
:1012BC004A92E0E0F0E0E7CFFA93EA93A0E0B0E0E6
:1012CC000C94FF00FA93EA93D201E2E0F0E00E9462
:1012DC00010D0895FA93EA93D2010C94FF00D20108
:1012EC00E2E0F0E00E94010D0895FA93EA93E0E049
:1012FC00F0E00895F2010E94D00CBF010895F201B4
:10130C000E94D00CFA93EA930895FA93EA935A92B6
:10131C004A9208950E948300E0936D01A0916D01A3
:10132C000895E0936901F0936A010C948300E093B3
:10133C006B01F0936C010C9483000E948300AFEF5F
:10134C00EA9FF0010895A0916301B09164010895A2
:10135C00EA1BFB0B0E94DC0C0E945C0B0E94360DFE
:10136C0008950E94DC0C0E945C0BDF01CB010895F8
:10137C000E94E60BDF01CB010895E0917201F09120
:10138C0073010895FADFEDCFE0E0F0E064E371E47F
:10139C000895FADF0E94400D0E948F0B08950E9461
:1013AC00DC0C0E945C0BA0E0B0E084EB91E40E94AA
:1013BC00E60B0895A0E0B0E080E090E40C94FE050C
:1013CC00A0917401B09175010895EAE0F0E04FCF5F
:1013DC00A0917601B091770108950E943B0D0E9477
:1013EC002C0D08950E94310D08950E94270D08952B
:1013FC00FCDFA0E0B0E080E89FE30895AE81BF8100
:10140C00888599850895EE81FF8168857985089591
:10141C00EE83FF83688779870895F5DFEFCFF3DFDD
:10142C00A0E0B0E080E89FE308950E94E60BEA8319
:10143C00FB836C837D8308950E94400D0E948F0B6B
:10144C000895EA81FB816C817D810895AA85BB8515
:10145C008C859D850895E0E0F0E060E070E00895F3
:10146C00E885F9856A857B850895A885B9858A857F
:10147C009B850895EC81FD816E817F8108950E948A
:10148C00E204AC81BD818E819F8172CF0E94F00AF3
:10149C00DF01CB010895AC81BD818E819F810E94BB
:1014AC00E60B08950E94E60BAEE4BFE88AE491E4F3
:1014BC000E94960B08950E942C0D08950E94340CE6
:1014CC00DF01CB010C9449060E948308A3E0B0E035
:1014DC000C94C90AA0E30E946F0888EC90E0019775
:1014EC00F1F70895C098C198B89AB99815C0B998F1
:1014FC00B898EE270000B19B0895B09B089504D0D6
:10150C00B99A02D0B89AE1E06DE007C0B99AB89ADE
:10151C0003D0B898F9DFB9986BE16A95F1F70895A3
:10152C0078E0B898F1DFB09BFECFEEDF8894B199EC
:10153C000894B89AF1DFEE1F7A9599F77A2F7723F2
:10154C0011F4B99801C0B99ADFDFB898E5DFB89A01
:10155C00DBDFB998D9CF78E0AA0F10F4B99801C0A5
:10156C00B99ADADFB898D0DFB09BFECFCDDFB89A4E
:10157C007A9591F7B998C8DFB898CEDFE1E0B199C8
:10158C00EE27B89AC1CF109639F080ED97E001970D
:10159C00F1F7A8951197C9F70895E991F991699117
:1015AC00799177FB660F771F88277E57880B7D9381
:1015BC008C937EE7769567956EF00895E991F99195
:1015CC006991799177FB660F771F7A0F76956795FE
:1015DC000EF0089530976040704009F070580895EF
:1015EC00552342F4503811F4E0FF04C03196691FC2
:1015FC00791F6BF050E8572711F45F93CFC05F3F12
:10160C0031F0660F000C57956795752F08955F9311
:10161C0000200AF0CFC0C8C050E8192E1522880F40
:10162C00991F9527550F879550E8072E0522660FB1
:10163C00771F7527550F67950895689401C0E89436
:10164C005F93F2DF703818F07F3F08F4A7C056E1C3
:10165C00571BAAF4519558300EF4593030F0EFEF77
:10166C00FFEF6FEF7FE777F91AC077275523B9F0B3
:10167C00EE0FFF1F661F771F5A95D1F710C0772703
:10168C00583028F0EF2FF62F672F5850F9CF5523ED
:10169C0031F076956795F795E7955A95D1F7002037
:1016AC000AF47CD15F910895689401C0E894309756
:1016BC0060407040B1F0002426F0772312F40094BF
:1016CC006DD1172E7EE1112032F07A95EE0FFF1FAF
:1016DC00661F111CF9CFEF2FF62F612D5F938ADF58
:1016EC005F9108954F93AF01FD01DA01AB01BC018D
:1016FC00CA01402D012C142E4F910895EA0FFB1FA7
:10170C00681F0895E095F0956095EF5FFF4F6F4F60
:10171C0008955F9381DF903871F150E8152604C06D
:10172C005F937ADF903839F1703821F1572F591BBC
:10173C002BF112F4D7DFFACF583118F0AA27BB27B8
:10174C008827583028F0AB2FB82F88275850F9CF5E
:10175C00552329F08695B795A7955A95D9F7502D0D
:10176C00512572F0CBDF38F46795F795E7957395B3
:10177C0013F420C0B7DF3EDF5F910895D8F7FBCF9D
:10178C00EA1BFB0B680B51F010F40094BBDF6623D3
:10179C0092F3EE0FFF1F661F7A95CBF7EE27FF270C
:1017AC00662777275F910895EFEFFFEF6FE77FEFE5
:1017BC005F910895EFEFFFEF6FE77FE75F9108957B
:1017CC005F932ADF703851F3903841F30124089469
:1017DC00791F23F41CF300203AF3ECCF0F921F93E4
:1017EC002F933F934F93112722279927689FA0018E
:1017FC008F9F302D410D591F6B9F300D411D591F6F
:10180C008E9F27D0BF9F25D06A9F23D0BE9F1DD00F
:10181C00AF9F1BD0AE9F110D291F391F491F591F98
:10182C00E32FF42F652F522F4F913F912F911F9142
:10183C000F9066232AF0550FEE1FFF1F661F02C084
:10184C0073954BF2CDDE5F910895100D211D391F5C
:10185C0002C0200D311D491F591F08955F93DCDE16
:10186C00703821F411200AF49FCFA4CF903809F4DA
:10187C0095CF01240894970B1BF4D4F30020F3CFDD
:10188C00792F1F932F933F934F93112411272227C6
:10189C0033274427552790E2AE17BF078607410729
:1018AC0030F0AE1BBF0B860B410B089401C0889423
:1018BC00551F221F331F111CAA1FBB1F881F441F3B
:1018CC009A9551F7F901612D4F913F912F911F91ED
:1018DC00662332F0550FEE1FFF1F661F7A9543F2F9
:1018EC007FDE5F91089599239AF0772342F0971742
:1018FC0048F029F4AE17BF07860720F031F0989412
:10190C008894089598940894089518948894089548
:10191C007723C2F7971798F3A9F7EA17FB0768071D
:10192C0088F399F3ECCFA1D024975F939F819923EF
:10193C0011F4289633CF12F428963CCF4F9342E4FF
:10194C008E81BD81AC8188839983AA83BB83FD0181
:10195C00BC01AC81BD818E819F8180DF88819981A2
:10196C00AA81BB81DDDE60DE7A9544DE88819981B7
:10197C00AA81BB81AE27A87F21F4BF1786079707E2
:10198C0029F04A9519F0DF01CB01DDCF4F915F9122
:10199C0028960895F195E195F0400895F09560959D
:1019AC007095E195FF4F6F4F7F4F08956F2F660F26
:1019BC00660B762F0895FA9FF02DEB9FF00DEA9FA2
:1019CC00E02DF10D08952AD0F6DF0EF4E3DF089533
:1019DC000024112490E1AA0FBB1F001C111C0E1A2D
:1019EC001F0A18F40E0E1F1E01C0A1609A9599F7DC
:1019FC00FD01D001089512D0EBDF0EF4CBDF08957A
:101A0C00E894B7FF04C0A095B09511966894F7FDC3
:101A1C00C1DFDEDFFD010EF4BDDF0895E894F7FFB2
:101A2C0002C0B8DF6894B7FF06C0A095B0951196B8
:101A3C0000F8039400FA0895ED93FD936D937C9355
:101A4C000895E881F9816A817B810895A881B98123
:101A5C008A819B810895E883F9836A837B83089547
:101A6C007A936A93FA93EA9308959A938A93BA9322
:101A7C00AA930895182E862F612D192E972F712D4C
:101A8C001B2EBF2FF12D1A2EAE2FE12D089530975E
:101A9C0060407040089500240A160B060895002437
:101AAC000A160B06080609060895EA17FB076807CD
:101ABC00790708955A934A933A932A931A930A935F
:101ACC0008955D814C813B812A811981088108959B
:00000001FF
