:100000000C9456000C9400000C9400000C9400001A
:100010000C9400000C9400000C9400000C94000060
:100020000C9400000C9400000C9400000C94000050
:100030000C9400000C9400000C9400000C94000040
:100040000C9400000C9454070C9400000C940000D5
:100050000C9400000000FF0000000000000087007A
:1000600046005400583D00593D00070080C0010083
:100070002D4E414E00494E46000001000200540042
:1000800008000400560001006E015E0001007001CE
:100090006000010079016200010062016A00020053
:1000A00087016C0001008E016E000000F894EE27BD
:1000B000ECBBF1E0FBBFEBBFE5BF8DE0A2E0BB27EF
:1000C000ED938A95E9F780E094E0A0E6ED9301973F
:1000D000E9F7EAE7F0E085919591009761F0A59145
:1000E000B59105901590BF01F00105900D92019713
:1000F000E1F7FB01F0CFEFE5EDBFE4E0EEBFC0E6D6
:10010000D1E00C94DC031A930E94C70AA8EA0E946B
:10011000FB0AE0917A01AE2F0E94FB0AA0917901BF
:100120000E94FB0A0E94C70AA9EA0E945A09199173
:100130000895AA931A930E94C70AA0EC0E94FB0A92
:10014000A9810E94FB0A0E94C70AA1EC0E945A09D9
:100150001881D2C1A1E0EDDFF0E0EA19FB094F01FF
:10016000E0E8F0E0E815F9052CF4EFEFF0E08E1A86
:100170009F0A09C0E0E8FFEF8E169F0624F4F40101
:10018000E150FF4F4F0100248014900474F0EBE025
:100190000E946409ABE20E94F808D4010E94680939
:1001A000D4010E947509D40110C0EBE00E946409DB
:1001B000ADE20E94F8080E9482090E9468090E942C
:1001C00082090E9475090E948209EAE0F0E00E941B
:1001D0008709EEE1F0E08E169F062CF4E2EEFFEFC9
:1001E000E815F9050CF003C0880C991C01C0440106
:1001F000F401AFEFBFEF0E94330D4F010895BA93A2
:10020000AA93F401AE81BF81EA0FFB1FEE83FF8347
:10021000F401AC81BD81EA0FFB1FEC83FD83F40187
:10022000A881B981EA0FFB1FE883F983F401AA8151
:10023000BB81EA0FFB1FEA83FB83AE81BF81A03045
:10024000E1E0BE0724F0EFEFF0E0EE83FF83AE8144
:10025000BF81A130EFEFBE0724F4E1E0FFEFEE83B2
:10026000FF83AC81BD81A030E1E0BE0724F0EFEF59
:10027000F0E0EC83FD83AC81BD81A130EFEFBE07E0
:1002800024F4E1E0FFEFEC83FD83AA81BB81A03081
:10029000E1E0BE0724F0EFEFF0E0EA83FB83AA8100
:1002A000BB81A130EFEFBE0724F4E1E0FFEFEA836A
:1002B000FB83A881B981A030E1E0BE0724F0EFEF15
:1002C000F0E0E883F983A881B981A130EFEFBE07A0
:1002D00024F4E1E0FFEFE883F983AE81BF810E945F
:1002E0009B0D1CF49398EE8103C0939AEE81E1502C
:1002F000E3BDAC81BD810E949B0D24F49298EC81FA
:10030000FD8105C0929AEC81FD81E150FF4FFBBD5C
:10031000EABDAA81BB810E949B0D24F49198EA81D9
:10032000FB8105C0919AEA81FB81E150FF4FF9BD45
:10033000E8BDA881B9810E949B0D1CF49098E881CA
:1003400003C0909AE881E150ECBF28960895BA93D3
:10035000AA93E881F981309741F45A924A920E9417
:100360008D090E949309DF014ADFA881B9811197A5
:1003700051F40E9499090E9493090E9493090E94D6
:10038000A109DF013CDFA881B981129721F40E9405
:10039000A7090E94AC09A881B981139751F40E9462
:1003A0008D090E94A1090E9493090E94B209DF01F0
:1003B00026DFA881B981149731F40E948D090E942B
:1003C00093090E94BA09A881B981159751F40E9436
:1003D000BF090E9493090E9493090E94A1090E94EB
:1003E000BA09A881B981169741F4E0E0F0E00E94D3
:1003F00093090E94C5090E94BA09A881B98117977B
:1004000061F40E94CA090E94A109FA93EA937A93BF
:100410006A930E94BF090E94BA09A881B9811897FE
:1004200031F40E94CF090E94D509D201E8DEA881EB
:10043000B981199751F40E94CF090E94A109FA933A
:10044000EA930E949909DF01DADEA881B9811A973F
:1004500051F4F2010E941A0D0E94C5090E94D509AB
:10046000A0E0B0E0CCDEA881B9811B9769F40E94BE
:10047000CA090E94B2090E94D509DB01E2E0F0E05E
:100480000E944B0DDF01BBDEA881B9811C9741F4AE
:100490000E94CF095A924A925A924A92DF01AFDEE5
:1004A000A881B9811D9761F40E94CA090E94A1091F
:1004B000FA93EA930E949909FA93EA93DB019FDE8B
:1004C000A881B9811E9741F4E0E0F0E0FA93EA9345
:1004D0000E94A709DF0193DEA881B9811F9761F40B
:1004E0000E94BF09FA93EA930E948D090E94A10914
:1004F0000E949309DF0183DE229608950E94DA09A3
:10050000AA3A09F060C00E94DA09A53509F05BC07B
:10051000FADDF9DDF0E00E94E109AFEFEA9FF001BA
:10052000A0916901B0916A01EA0FFB1F0E94E109E5
:10053000F0E00E94E709AFEFEA9FF001A0916B01A4
:10054000B0916C01EA0FFB1F0E94E709CE2EDD245B
:100550000E94ED09CE0EDF1ED6DDF0E0E0936301D0
:10056000F09364010E94ED090E94F309EA0FFB1F5A
:10057000E0936301F0936401C6DDF0E0E093650170
:10058000F09366010E94ED09A0916501B0916601AA
:10059000EA0FFB1FE0936501F0936601B4DDF0E024
:1005A000E0936701F09368010E94ED09A091670153
:1005B000B0916801EA0FFB1FE0936701F0936801B7
:1005C000E1E0E0937801E0916D01E03011F0E1E0CD
:1005D00001C0E0E0E09378010E94F309E09170012E
:1005E000F09171010E94F809E0916E01F0916F01A4
:1005F000EC19FD090E94010A0E94FB06A0E0B0E090
:1006000084E393E40E94080AEBEDFFE069E470E400
:100610000E947E0CA2E7B1E00E946F0BED93FC9369
:10062000A0917301AA2342F40E940D0AE859FE4FDB
:10063000E0937201F0937301A0917201B091730184
:10064000E8E6F1E0EA1BFB0BE0937201F093730123
:1006500066247724E0E1F0E06E167F060CF04DC0D2
:100660000E94120A0E94140A0E94C30C11F008F0A2
:1006700006C0E0E0E0937401E09375013AC00E9487
:10068000120AE0E0F0E46EEA73E40E94C30C28F082
:10069000E0937401E09375012CC00E94120A0E943D
:1006A000190A7F936F93FF93EF93F3010E941F0A40
:1006B000AF91BF918F919F910E94C30C98F00E94BF
:1006C000120A0E94190A7F936F93FF93EF93F3012D
:1006D00031960E941F0AAF91BF918F919F910E9406
:1006E000C30C08F006C0F3013196E0937401F09357
:1006F0007501F30131963F01ADCFA0916E01B0912C
:100700006F019396F6010E94F8090E942A0A7F93CE
:100710006F93FF93EF93A0917001B0917101E091FD
:100720006301F09164010E94F8090E942A0AAF91C6
:10073000BF918F919F910E94E00BDF01CB010E943E
:10074000E30CA6E7B1E00E946F0BED93FC93E0E0B1
:10075000EA93A1E00E94D9080E94300A0E94680929
:100760000E94300A0E9475090E94300A0E94350AD0
:10077000E0E00E946409A4E6B0E00E941809D601F6
:100780000E946809D6010E947509D6010E94350AA7
:10079000E5E00E946409A7E6B0E00E9418090E9403
:1007A000F3090E9468090E94F3090E9475090E94DA
:1007B000F3090E94350A0895E0E0EABBEBBBE8EFDD
:1007C000E7BBE0E0E8BBE4BBE5BBEFEBE1BBE0E0AF
:1007D000E2BBEBE6E3BFE0E0E2BFECBFE1EAEFBD86
:1007E000EBE0EEBDE0E0EDBDECBDE7BDE6BDEBBD91
:1007F000EABDE9BDE8BDE2BDECE6E5BDE0E0E4BD93
:10080000E3BDE9BFE5BFE4BFEAB9E0E8E8B9E0E489
:10081000E7B9E7E8E6B9E0E0E0BFEDB9E6BF0E947E
:10082000C20AA0E10E942B09EFEFF0E02F01A0ED3A
:10083000B7E00E94130BA1E07CDCAE2EBB248ADC67
:100840005DDEE0917801E03009F4BBC00E94300A1F
:10085000A734E0E0BE070CF45AC0E0917401F091B7
:100860007501309719F40E94380A4FC00E94380A67
:10087000119719F40E94380A48C00E94380A1F973D
:1008800019F40E94380A41C00E94380A129719F4DC
:100890000E94380A3AC00E94380A1E9719F40E9432
:1008A000380A33C00E94380A139724F00E94380A8D
:1008B00017970CF004C00E94380A129626C00E94B6
:1008C000380A1A9724F00E94380A1E970CF004C0C8
:1008D0000E94380A129719C00E94380A179724F00C
:1008E0000E94380A19970CF004C00E94380A119629
:1008F0000CC00E94380A199724F00E94380A1A97EF
:100900000CF004C00E94380A119721DD59C0E09113
:100910007401F0917501309719F40E94380A4FC0A4
:100920000E94380A119719F40E94380A48C00E94A0
:10093000380A1F9719F40E94380A41C00E94380AE9
:10094000129719F40E94380A3AC00E94380A1E977A
:1009500019F40E94380A33C00E94380A139724F011
:100960000E94380A17970CF004C00E94380A1196AA
:1009700026C00E94380A1A9724F00E94380A1E974F
:100980000CF004C00E94380A119719C00E94380A5E
:10099000179724F00E94380A19970CF004C00E949F
:1009A000380A12960CC00E94380A199724F00E9447
:1009B000380A1A970CF004C00E94380A1297C7DC54
:1009C00008C0E0E0F0E00E94C5090E94C5090E944D
:1009D000AC0935CFFFCF0E94850D7B816A81F981FB
:1009E000E88177FB770F67FD7160972F9E5781F045
:1009F00078F0983190F4AA27BB2788270894879528
:100A0000B795A7959A95D1F7EA23FB23682305C0EC
:100A1000E8947727EE27FF2766276F77769508F407
:100A2000606877F9A991B99189919991EA17FB07C3
:100A30006807790797FB08950E943D0A0E94EB041E
:100A40000E94420A19F40E94450AD3C1E6F70E94A7
:100A5000480A0E94D90BCDC10E94850D24971A9394
:100A60000A930E944E0A0E949F0D2CF0EFEFFFEFB9
:100A70006FE77FEF6FC00E94530A0E94800DADB7F1
:100A8000BEB711971F930F930E941D0B0F911F91DB
:100A90000E94580A0E944E0AE3EFF4E065E37FE308
:100AA0000E94C30C40F40E945D0A0E94E00B0E9469
:100AB000580A015010400E945F0A0E94D90B7F9390
:100AC0006F93FF93EF930E945F0A0E94E00BAF9138
:100AD000BF918F919F910E947E0C0E94580A0E94A4
:100AE0005D0A0E94650AA6E2B2E485E69FE30E94E1
:100AF000080AEEE4F1E164E570E40E946C0A0E94E9
:100B00004E0A0E94300C7F936F93FF93EF930E94E5
:100B1000710AADE4B1E184ED9FE30E94D90BAF917E
:100B2000BF918F919F910E947E0C7F936F93FF9353
:100B3000EF93F8010E94260D0E94A60BA8E1B2E7F0
:100B400081E39FE30E94300CAF91BF918F919F9101
:100B50000E94E00B198108812A9608950E94850D54
:100B600028971A930A930E94760AE0E5FCEA6EEA57
:100B700072EC0E94C30C18F40E947B0A85C0EA85BF
:100B8000FB856C857D850E94970D29F4E0E0F0E0FF
:100B900060E87FE379C00E94760AE8E1F2E761EB62
:100BA00072E40E94C30C09F008F405C0EFEFFFEFF8
:100BB0006FE77FE769C00E94760AEBE3FAEA68EB29
:100BC0007FE30E94300CEA87FB876C877D870E9459
:100BD000760A32DF0E946F0B8F010E94760A0E9414
:100BE000260D0E94A60B0E946C0ADF01CB01E0E0FB
:100BF000F0E060E07FE30E946C0A0E94580A0E94C5
:100C00005D0A0E94650AADE6BCE48CE69DE30E94A5
:100C1000300CA6EAB3EE86EE90E40E94E00B0E9450
:100C20004E0A0E94300C0E94580A0E94710AA8E2E3
:100C3000BDE886EA91E40E94E00BEA83FB836C83C3
:100C40007D830E94530AAA81BB818C819D810E9471
:100C5000E00BA3EFB4E085EB9FE30E94300C7F93A1
:100C60006F93FF93EF930E944E0A0E94710A0E94B5
:100C7000D90BAF91BF918F919F910E947E0C0E94E2
:100C8000800DD8010E942E0B198108812E9608959F
:100C90000E94850D24970E94800A0E94970D19F4E6
:100CA0000E947B0AFFC00E94850A0E949F0D84F467
:100CB0000E948A0A0E94970D29F4E0E0F0E060E8C3
:100CC0007FE3F0C00E94850A0E948F0A47DFEAC0D6
:100CD0000E948A0ADE010E946F0B0E946C0D0E9426
:100CE000450A0E94A60BDF01CB010E948A0A0E94DE
:100CF000A50D19F00E947B0AD5C00E94800A0E94AF
:100D0000960A0E948F0A2ADFE887F9876A877B871D
:100D1000E881E17019F40E94800AC4C00E94800A30
:100D20000E943A0BBFC00E94850D24970E948A0A38
:100D30000E949B0A0E94420A0E94450AA5E6B0ED65
:100D40008BEC90E40E94A20A0E949B0A7F936F930F
:100D5000FF93EF930E94450AA0E0BDE689E291E48B
:100D60000E94E00B0E94AB0A0E94A20AAF91BF91C1
:100D70008F919F910E947E0C289608950E943D0AB3
:100D8000EDECF3E164ED7EE30E94C30C20F40E94DD
:100D9000AB0AC9DF2EC00E94AB0AEAE7F2E86AE1BB
:100DA00070E40E94C30C09F008F40BC00E94480ACA
:100DB0000E94AE0AABEDBFE089EC9FE30E946C0A93
:100DC00018C00E94480A0E94D90B7F936F93FF932B
:100DD000EF930E94480A0E94E00BAF91BF918F9160
:100DE0009F910E94AE0AABEDBFE089E49FE30E94B1
:100DF000E00B249608950E94850D24970E948A0A8C
:100E00000E94970DC9F40E94800A0E94970D29F450
:100E1000EFEFFFEF6FE77FE745C00E94850A0E9472
:100E20009F0D2CF4EBEDFFE069EC7FE33BC0EBEDB5
:100E3000FFE069EC7FEB36C00E948A0A0E94850AB7
:100E40000E947E0C0E94420AAC81BD818E819F81EE
:100E50000E949F0D7CF4AB85AA2322F00E94AB0A6E
:100E60008DDF20C00E94450A0E94960A87DF0E94FB
:100E70003A0B18C0AB85AA2362F00E94450A0E9473
:100E8000960A7CDFABEDBFE089E490E40E946C0A37
:100E900009C00E94AB0A72DFABEDBFE089E490ECC1
:100EA0000E94E00B2C9608950A921A92FA926A9385
:100EB0007A938A939A93AA93BA93EA93FA93EFB7A1
:100EC000EA930E94AA0D1091610100916001309196
:100ED0007E0120916201E12FA0917F01B0918001FC
:100EE000F0E0EA0FFB1FAF01E1B1E87FE83011F459
:100EF00020E002C0E03119F4E0917B0110C0E8313C
:100F000011F0E83221F5031780F4E02F0F5FA09174
:100F10007C01B0917D01F0E0AE0FBF1FEC91E3B911
:100F2000E6B7EF70E068E6BF11C0E09181011E17DF
:100F300060F4E0917B01E160E0937B01E89420F8AC
:100F4000E6B7EF70E06AE6BFFBC033C0F9C0E0353A
:100F500029F4E3B1DA01EC931F5F02C0E03471F4CD
:100F6000E0918101E1501E1720F0E6B7EF70E068D4
:100F700003C0E6B7EF70E06CE6BFE2C0E83529F4E5
:100F8000E3B1DA01EC931F5F02C0E03209F402C062
:100F9000E03309F402C0E83469F4203051F420FE53
:100FA00003C0031728F005C0E09181011E1708F463
:100FB00024E0C0C0E83329F422E0E6B7EF70E0682F
:100FC000BCC0E83611F0E83711F422E005C0E03685
:100FD00011F0E03791F420E010E0E89420F8E0917F
:100FE0008201E03029F421E0E6B7EF70E06803C049
:100FF000E6B7EF70E06CE6BFA3C0E03811F0E0396F
:1010000029F520FE02C021E095C0E3B1DA01EC939E
:101010001F5FE09182011E17B0F4E0918301F0910F
:101020008401309711F426E085C0A0E0E0918301AF
:10103000F09184010995E03029F0E6B7EF70E06C9B
:10104000E6BF7EC002C0689420F802C0E83809F408
:1010500002C0E83929F4E6B7EF70E068E6BF70C077
:10106000E03AA9F4E6B7EF70E06CE6BF689421F8C7
:10107000E0918301F0918401309739F0A1E0E09193
:101080008301F0918401099501C026E059C0E03B3D
:1010900011F422E002C0E83AB9F4E0918501F09140
:1010A0008601309759F0A0E0E0918501F09186012A
:1010B00009953E2FE03011F020E002C026E03AC052
:1010C00000E0E89420F802C0E83BE1F420FE02C012
:1010D00021E030C0E02F0F5FA0917C01B0917D0135
:1010E000F0E0AE0FBF1FEC91E3B9031720F4E6B7B1
:1010F000EF70E06C05C0689420F8E6B7EF70E06828
:10110000E6BF1EC0E03C11F0E83C89F4E6B7EF70A2
:10111000E06CE6BFE0918501F0918601309731F0F7
:10112000A1E0E0918501F0918601099507C0E030CA
:1011300039F423E0E6B7EF70E06DE6BF689421F87C
:1011400010936101009360012093620130937E014E
:101150000E94B10D2696E991EFBFF991E991B991FD
:10116000A9919991899179916991F9901990099032
:101170001895AA93E5B3EF70AE2FE881E07FEA2BD4
:10118000E5BB8DE08A95F1F7AA9A8DE08A95F1F793
:10119000AA988DE08A95F1F78BC0AA93A881E9DF20
:1011A000E881E295E883A881E4DF85E88A95F1F794
:1011B0007FC0AA93E881F0E0E957FE4FE081A98162
:1011C000AE0FEBDFE981E0938B01E881E0938C01C6
:1011D00022960895A2E00E94B40AACE0DEDFA1E00E
:1011E0000E94B40AE0E0E0938C01E0938B01089543
:1011F000AA93A881AA3031F0E0918D01A0918B01D2
:10120000AE1760F0E0E0EA93A0918C01AF5FA0938D
:101210008C01CFDFA881AA3009F44AC0E0918B018C
:10122000EF5FE0938B01A89AA881B7DFA89840C030
:10123000BA93AA931A93E981FA813196E983FA83E2
:101240003197E4911E2FE03019F0A12FD1DFF3CFB9
:10125000188123960895AA93E4B3E06FE4BBA29AA1
:10126000A09AA19AAA98A898A998E881E0938D01DC
:10127000E058E0938901E881E054E0938A01A4E119
:10128000B0E00E94130B0E94BA0A0E94BA0A0E94A0
:10129000BA0AA0E26EDF88EC90E00197F1F7A8E2CD
:1012A0007CDFA4E07ADFA5E878DFA6E076DF92DFD6
:1012B000219608950E94FB0AA0E00E94E00A1E2FDA
:1012C0000E94D60AE12F0895EA93A0E00C94D90871
:1012D000E4E6F0E00E944B0DDF01EAE0F0E00E945E
:1012E000500DE05DAE2F0C94F808EAE0F0E00E94AB
:1012F0004B0DDF01EAE0F0E00E94500DE05DAE2F03
:101300000C94F808F4010E941A0DDF0108950E9460
:10131000500DE05DAE2F0C94F8085A924A92F201FB
:101320000E941A0D0895FA93EA93F2010E941A0D91
:1013300008955A924A92D201E2E0F0E00E944B0DE9
:101340000895DF01E2E0F0E00E944B0D08955A920B
:101350004A92E0E0F0E0E7CFFA93EA93A0E0B0E051
:101360000C94FF00FA93EA93D201E2E0F0E00E94CD
:101370004B0D0895FA93EA93D2010C94FF00D20129
:10138000E2E0F0E00E944B0D0895FA93EA93E0E06A
:10139000F0E00895F2010E941A0DBF010895F201D4
:1013A0000E941A0DFA93EA930895FA93EA935A92D7
:1013B0004A9208950E948300E0936D01A0916D010F
:1013C0000895E0936901F0936A010C948300E0931F
:1013D0006B01F0936C010C9483000E948300AFEFCB
:1013E000EA9FF0010895A0916301B091640108950E
:1013F000EA1BFB0B0E94260D0E94A60B0E94800D8B
:1014000008950E94260D0E94A60BDF01CB010895CE
:101410000E94300CDF01CB010895E0917201F09140
:1014200073010895FADFEDCFE0E0F0E064E371E4EA
:101430000895FADF0E948A0D0E94D90B08950E9438
:10144000260D0E94A60BA0E0B0E084EB91E40E9480
:10145000300C0895A0E0B0E080E090E40C944806E1
:10146000A0917601B09177010895EAE0F0E04FCFC6
:10147000A0917401B091750108950E94850D0E949C
:10148000760D08950E947B0D08950E94710D0895B8
:10149000FCDFA0E0B0E080E89FE30895AE81BF816B
:1014A000888599850895EE81FF81688579850895FD
:1014B000EE83FF83688779870895F5DFEFCFF3DF49
:1014C000A0E0B0E080E89FE308950E94300CEA833A
:1014D000FB836C837D8308950E948A0D0E94D90B43
:1014E0000895EA81FB816C817D810895AA85BB8581
:1014F0008C859D850895E0E0F0E060E070E008955F
:10150000E885F9856A857B850895A885B9858A85EA
:101510009B850895EC81FD816E817F8108950E94F5
:101520002C05AC81BD818E819F8172CF0E943A0BC8
:10153000DF01CB010895AC81BD818E819F810E9426
:10154000300C08950E94300CAEE4BFE88AE491E4C8
:101550000E94E00B08950E94760D08950E947E0C73
:10156000DF01CB010C9493060E94CD08A3E0B0E00C
:101570000C94130BA0E30E94B90888EC90E001974B
:10158000F1F70895C098C198B89AB99815C0B9985C
:10159000B898EE270000B19B0895B09B089504D041
:1015A000B99A02D0B89AE1E06DE007C0B99AB89A4A
:1015B00003D0B898F9DFB9986BE16A95F1F708950F
:1015C00078E0B898F1DFB09BFECFEEDF8894B19958
:1015D0000894B89AF1DFEE1F7A9599F77A2F77235E
:1015E00011F4B99801C0B99ADFDFB898E5DFB89A6D
:1015F000DBDFB998D9CF78E0AA0F10F4B99801C011
:10160000B99ADADFB898D0DFB09BFECFCDDFB89AB9
:101610007A9591F7B998C8DFB898CEDFE1E0B19933
:10162000EE27B89AC1CF109639F080ED97E0019778
:10163000F1F7A8951197C9F70895E991F991699182
:10164000799177FB660F771F88277E57880B7D93EC
:101650008C937EE7769567956EF00895E991F99100
:101660006991799177FB660F771F7A0F7695679569
:101670000EF0089530976040704009F0705808955A
:10168000552342F4503811F4E0FF04C03196691F2D
:10169000791F6BF050E8572711F45F93CFC05F3F7D
:1016A00031F0660F000C57956795752F08955F937D
:1016B00000200AF0CFC0C8C050E8192E1522880FAC
:1016C000991F9527550F879550E8072E0522660F1D
:1016D000771F7527550F67950895689401C0E894A2
:1016E0005F93F2DF703818F07F3F08F4A7C056E12F
:1016F000571BAAF4519558300EF4593030F0EFEFE3
:10170000FFEF6FEF7FE777F91AC077275523B9F01E
:10171000EE0FFF1F661F771F5A95D1F710C077276E
:10172000583028F0EF2FF62F672F5850F9CF552358
:1017300031F076956795F795E7955A95D1F70020A2
:101740000AF47CD15F910895689401C0E8943097C1
:1017500060407040B1F0002426F0772312F400942A
:101760006DD1172E7EE1112032F07A95EE0FFF1F1A
:10177000661F111CF9CFEF2FF62F612D5F938ADFC3
:101780005F9108954F93AF01FD01DA01AB01BC01F8
:10179000CA01402D012C142E4F910895EA0FFB1F12
:1017A000681F0895E095F0956095EF5FFF4F6F4FCC
:1017B00008955F9381DF903871F150E8152604C0D9
:1017C0005F937ADF903839F1703821F1572F591B28
:1017D0002BF112F4D7DFFACF583118F0AA27BB2724
:1017E0008827583028F0AB2FB82F88275850F9CFCA
:1017F000552329F08695B795A7955A95D9F7502D79
:10180000512572F0CBDF38F46795F795E79573951E
:1018100013F420C0B7DF3EDF5F910895D8F7FBCF08
:10182000EA1BFB0B680B51F010F40094BBDF66233E
:1018300092F3EE0FFF1F661F7A95CBF7EE27FF2777
:10184000662777275F910895EFEFFFEF6FE77FEF50
:101850005F910895EFEFFFEF6FE77FE75F910895E6
:101860005F932ADF703851F3903841F301240894D4
:10187000791F23F41CF300203AF3ECCF0F921F934F
:101880002F933F934F93112722279927689FA001F9
:101890008F9F302D410D591F6B9F300D411D591FDA
:1018A0008E9F27D0BF9F25D06A9F23D0BE9F1DD07B
:1018B000AF9F1BD0AE9F110D291F391F491F591F04
:1018C000E32FF42F652F522F4F913F912F911F91AE
:1018D0000F9066232AF0550FEE1FFF1F661F02C0F0
:1018E00073954BF2CDDE5F910895100D211D391FC8
:1018F00002C0200D311D491F591F08955F93DCDE82
:10190000703821F411200AF49FCFA4CF903809F445
:1019100095CF01240894970B1BF4D4F30020F3CF48
:10192000792F1F932F933F934F9311241127222731
:1019300033274427552790E2AE17BF078607410794
:1019400030F0AE1BBF0B860B410B089401C088948E
:10195000551F221F331F111CAA1FBB1F881F441FA6
:101960009A9551F7F901612D4F913F912F911F9158
:10197000662332F0550FEE1FFF1F661F7A9543F264
:101980007FDE5F91089599239AF0772342F09717AD
:1019900048F029F4AE17BF07860720F031F098947D
:1019A00088940895989408940895189488940895B4
:1019B0007723C2F7971798F3A9F7EA17FB07680789
:1019C00088F399F3ECCFA1D024975F939F8199235B
:1019D00011F4289633CF12F428963CCF4F9342E46B
:1019E0008E81BD81AC8188839983AA83BB83FD01ED
:1019F000BC01AC81BD818E819F8180DF888199810E
:101A0000AA81BB81DDDE60DE7A9544DE8881998122
:101A1000AA81BB81AE27A87F21F4BF17860797074D
:101A200029F04A9519F0DF01CB01DDCF4F915F918D
:101A300028960895F195E195F0400895F095609508
:101A40007095E195FF4F6F4F7F4F08956F2F660F91
:101A5000660B762F0895FA9FF02DEB9FF00DEA9F0D
:101A6000E02DF10D08952AD0F6DF0EF4E3DF08959E
:101A70000024112490E1AA0FBB1F001C111C0E1A98
:101A80001F0A18F40E0E1F1E01C0A1609A9599F747
:101A9000FD01D001089512D0EBDF0EF4CBDF0895E5
:101AA000E894B7FF04C0A095B09511966894F7FD2F
:101AB000C1DFDEDFFD010EF4BDDF0895E894F7FF1E
:101AC00002C0B8DF6894B7FF06C0A095B095119624
:101AD00000F8039400FA0895ED93FD936D937C93C1
:101AE0000895E881F9816A817B810895A881B9818F
:101AF0008A819B810895E883F9836A837B830895B3
:101B00007A936A93FA93EA9308959A938A93BA938D
:101B1000AA930895182E862F612D192E972F712DB7
:101B20001B2EBF2FF12D1A2EAE2FE12D08953097C9
:101B300060407040089500240A160B0608950024A2
:101B40000A160B06080609060895EA17FB07680738
:101B5000790708955A934A933A932A931A930A93CA
:101B600008955D814C813B812A8119810881089506
:00000001FF
