:0A0000000C945E000C9400000C94B8
:10000A0000000C9400000C9400000C9400000C9466
:10001A0000000C9400000C9400000C9400000C9456
:10002A0000000C948B000C9400000C9400000C94BB
:10003A0000000C9400000C9400000C9400000C9436
:10004A0000000C9400000C9400001027E8036400E0
:10005A000A00010000100001100001000000000069
:10006A000000FF0096006D004C005400583D0059F6
:10007A003D0080C001002D4E414E00494E46000011
:10008A000100020066000600040068000100750114
:10009A006E000100770170000100A10172000100E9
:1000AA00A50174000200A7017C000100AE017E00D8
:1000BA000000F894EE27ECBBF1E0FBBFEBBFE5BF15
:1000CA008DE0A2E0BB27ED938A95E9F780E094E002
:1000DA00A0E6ED930197E9F7EAE8F0E085919591BA
:1000EA00009761F0A591B59105901590BF01F001B7
:1000FA0005900D920197E1F7FB01F0CFEFE5EDBF17
:10010A00E4E0EEBFC0E6D1E00C943F06EA93FA932E
:10011A00EFB7EA931A930A931BB10CB1E12FEC7172
:10012A0089F4E52D5394F0E0E05AFE4F0083E8E0AD
:10013A00E51509F455247394E8E0E71519F47724D2
:10014A00689420F809911991E991EFBFF991E99121
:10015A0018951A937720F1F3E42D4394F0E0E05ACE
:10016A00FE4F1081E8E0E41509F44424F8947A94E7
:10017A00789429C0AA93E881E064E7B98BE18A956B
:10018A00F1F7369A349BFECF349AE4B1F5B1219651
:10019A0008951A930E94C30DA8EA0E94F70DE091F0
:1001AA00A601AE2F0E94F70DA091A5010E94F70D9E
:1001BA000E94C30DA9EA0E94F70DA0E00E94DC0D7F
:1001CA001E2F0E94D20DE12F19910895E0E0EA93C3
:1001DA00A0E00E94DF0AA6E7B0E00E941E0B0E9480
:1001EA00660B0E946B0B0E94660B0E94780B0E94A2
:1001FA00660B0E94850BE5E0EA93A0E00E94DF0A05
:10020A00A9E7B0E00E941E0B0E948D0B0E946B0BA7
:10021A000E948D0B0E94780B0E948D0B0E94850B09
:10022A00E0E00E94920B0E94960B0E946B0B0E94C8
:10023A00960B0E94780B0E94960B0E94850BE4E0B5
:10024A000E94920B0E949B0B0E946B0B0E949B0BBD
:10025A000E94780B0E949B0B0E94850B0895BA930B
:10026A00AA93F601AE81BF81EA0FFB1FEE83FF83DB
:10027A00F601AC81BD81EA0FFB1FEC83FD83F60119
:10028A00A881B981EA0FFB1FE883F983F601AA81E5
:10029A00BB81EA0FFB1FEA83FB83A881B981A030E7
:1002AA00E1E0BE0724F0EFEFF0E0E883F983AA81EA
:1002BA00BB81A030E1E0BE0724F0EFEFF0E0EA8373
:1002CA00FB83AC81BD81A030E1E0BE0724F0EFEFF3
:1002DA00F0E0EC83FD83AE81BF81A030E1E0BE0790
:1002EA0024F0EFEFF0E0EE83FF83A881B981A1301B
:1002FA00EFEFBE0724F4E1E0FFEFE883F983AA8178
:10030A00BB81A130EFEFBE0724F4E1E0FFEFEA83FF
:10031A00FB83AC81BD81A130EFEFBE0724F4E1E09D
:10032A00FFEFEC83FD83AE81BF81A130EFEFBE0703
:10033A0024F4E1E0FFEFEE83FF83AF81AA231AF0F2
:10034A00C298EE8103C0C29AEE81E150ECBFAD8142
:10035A00AA2322F09298EC81FD8105C0929AEC8141
:10036A00FD81E150FF4FF9BDE8BDAB81AA2322F020
:10037A009398EA81FB8105C0939AEA81FB81E15057
:10038A00FF4FFBBDEABDA981AA231AF09698E8811E
:10039A0003C0969AE881E150E3BD28960895F9DEF4
:1003AA006E2EEAEAE61509F092C0F3DE6E2EE5E556
:1003BA00E61509F08CC0EDDEECDEF0E00E94A00B41
:1003CA00AFEFEA9FF001A0917001B0917101EA0FBD
:1003DA00FB1F0E94A00BF0E0E0937201F0937301FF
:1003EA000E94A60B0E94AC0BEA0FFB1FE09372015E
:1003FA00F09373010E94AC0B119709F5CADEF0E085
:10040A00E0936801F09369010E94A60B0E94660BB3
:10041A00EA0FFB1FE0936801F0936901BADEF0E08E
:10042A00E0936A01F0936B010E94A60B0E948D0B68
:10043A00EA0FFB1FE0936A01F0936B0124C0A9DE67
:10044A00F0E0E0937F01F09380010E94A60BA09157
:10045A007F01B0918001EA0FFB1FE0937F01F093C7
:10046A00800197DEF0E0E0938101F09382010E941F
:10047A00A60BA0918101B0918201EA0FFB1FE093C4
:10048A008101F093820185DEF0E0E0936C01F09344
:10049A006D010E94A60BA0916C01B0916D01EA0F4B
:1004AA00FB1FE0936C01F0936D0173DEF0E0E093C3
:1004BA006E01F0936F010E94A60BA0916E01B0919C
:1004CA006F01EA0FFB1FE0936E01F0936F01662044
:1004DA0021F00E94AC0B119709F007C0E1E0F0E0AF
:1004EA00E0939501F09396011CC0662021F00E94CA
:1004FA00AC0B129709F00CC0E1E0F0E0E09389013F
:10050A00F0938A01E0E0E0939501E093960109C037
:10051A00E0E0E0939501E0939601E0938901E0938E
:10052A008A010E94B10B0E94C20B0E94D10BA9E75B
:10053A00B1E00E94E40BA0917A01AA2342F40E943E
:10054A00E90BE859FE4FE0937901F0937A01A09103
:10055A007901B0917A01E8E6F1E0EA1BFB0BE0933E
:10056A007901F0937A01AA24BB24E0E1F0E0AE1607
:10057A00BF060CF047C00E94EE0B0E94F60B0E94C9
:10058A00BF0F11F008F006C0E0E0E0937B01E093B2
:10059A007C0134C00E94EE0B0E94FB0B30F0E0E0BD
:1005AA00E0937B01E0937C0129C00E94EE0B0E943C
:1005BA00020C7F936F93FF93EF930E94080CAF9105
:1005CA00BF918F919F910E94BF0F88F00E94EE0BFE
:1005DA000E94020C7F936F93FF93EF930E94140C77
:1005EA00AF91BF918F919F910E94BF0F08F006C0F3
:1005FA00F5013196E0937B01F0937C01F501319688
:10060A005F01B3CF0E94C20B0E94210C7F936F93AC
:10061A00FF93EF930E94B10BA0E0B0E080E090E47A
:10062A000E94B209AF91BF918F919F910E94290CAC
:10063A00ADE7B1E00E94E40B0E942F0C0E946F10FC
:10064A000E943E0C0E94D10BA3E8B1E00E94E40B89
:10065A00A0918401AA2342F40E944D0CE859FE4F4E
:10066A00E0938301F0938401A0918301B091840106
:10067A00E8E6F1E0EA1BFB0BE0938301F0938401C7
:10068A00AA24BB24E0E1F0E0AE16BF060CF047C096
:10069A000E94520C0E94F60B0E94BF0F11F008F044
:1006AA0006C0E0E0E0938701E093880134C00E942D
:1006BA00520C0E94FB0B30F0E0E0E0938701E093DC
:1006CA00880129C00E94520C0E94020C7F936F93EA
:1006DA00FF93EF930E94080CAF91BF918F919F9166
:1006EA000E94BF0F88F00E94520C0E94020C7F9356
:1006FA006F93FF93EF930E94140CAF91BF918F9168
:10070A009F910E94BF0F08F006C0F5013196E09351
:10071A008701F0938801F50131965F01B3CF0E94FA
:10072A003E0C0E94210C7F936F93FF93EF930E94DC
:10073A002F0C0E94210CAF91BF918F919F910E9423
:10074A00290CA5E8B1E00E94E40B0895BA93AA9394
:10075A00E881F981309741F49A928A920E945A0C60
:10076A000E94600CDF017BDDA881B981119751F4E9
:10077A000E94660C0E94600C0E94600C0E946E0C23
:10078A00DF016DDDA881B981129721F40E94740CF2
:10079A000E94790CA881B981139751F40E945A0CCE
:1007AA000E946E0C0E94600C0E947F0CDF0157DDD4
:1007BA00A881B981149731F40E945A0C0E94600CE6
:1007CA000E94870CA881B981159751F40E948C0C5C
:1007DA000E94600C0E94600C0E946E0C0E94870CA2
:1007EA00A881B981169741F4E0E0F0E00E94600C1C
:1007FA000E94920C0E94870CA881B981179761F414
:10080A000E94970C0E946E0CFA93EA937A936A9369
:10081A000E948C0C0E94870CA881B981189731F428
:10082A000E949C0C0E94A20CD40119DDA881B981F6
:10083A00199751F40E949C0C0E946E0CFA93EA9349
:10084A000E94660CDF010BDDA881B9811A9751F469
:10085A00F4010E9416100E94920C0E94A20CA0E0C1
:10086A00B0E0FDDCA881B9811B9769F40E94970C5E
:10087A000E947F0C0E94A20CDB01E2E0F0E00E94E1
:10088A003A10DF01ECDCA881B9811C9741F40E947F
:10089A009C0C9A928A929A928A92DF01E0DCA88151
:1008AA00B9811D9761F40E94970C0E946E0CFA930D
:1008BA00EA930E94660CFA93EA93DB01D0DCA881E2
:1008CA00B9811E9741F4E0E0F0E0FA93EA930E94BE
:1008DA00740CDF01C4DCA881B9811F9761F40E94FE
:1008EA008C0CFA93EA930E945A0C0E946E0C0E9496
:1008FA00600CDF01B4DC22960895A5EA0E945F0B22
:10090A00A2E50E945F0B25DCE0937401A0917401BB
:10091A00AA3A49F41EDCF0E0A0918D01B0918E0153
:10092A00EA0FFB1F6F01A0918B01B0918C01A83CCB
:10093A00E0E0BE074CF0ADE8B1E00E94A70CE0E0B1
:10094A00E0938B01E0938C01ABE8B1E00E94A70C25
:10095A00E0E8F0E0EC15FD0524F4EFEFF0E0CE1A44
:10096A00DF0AE0E00E94920BEEE1F0E0CE16DF062D
:10097A002CF4E2EEFFEFEC15FD050CF002C0CC0CF6
:10098A00DD1C0E94AD0C79F00024C014D0043CF0A8
:10099A00E0E8F0E0EC19FD090E94161003C0F60128
:1009AA00E058FF4F6F01D69ADE9A8BE18A95F1F7EC
:1009BA00DE98E0E0E0939101E0939201D698CE9B15
:1009CA00FECFCE9B08C0A1E9B1E00E94A70C83E04C
:1009DA008A95F1F7F6CF0E949B0BE6E1F0E00E94C0
:1009EA003A10E0939101F0939201D79ADF9A8BE142
:1009FA008A95F1F7DF98E0E0E0938F01E0939001A8
:100A0A00D798CF9BFECFCF9B08C0AFE8B1E00E943A
:100A1A00A70C83E08A95F1F7F6CF0E94960BE6E1E0
:100A2A00F0E00E943A10E0938F01F0939001A0E069
:100A3A00A1DBE0939301F0939401A3E09BDBA091E7
:100A4A009F01B091A001EA1BFB0BE0939B01F0937D
:100A5A009C01A2E08FDBA0919D01B0919E01EA1B4F
:100A6A00FB0BE0939901F0939A010895AB9A0E94C7
:100A7A00B30CAB9808950E94B70C0CF47DC0ECE45B
:100A8A00F0E00E94BD0C0E94C40C0E94C80C0E9497
:100A9A00D20C199724F40E94D20C109749F40E94A0
:100AAA00D70C31F0A091A301B091A40154970CF096
:100ABA0017C00E94DD0C0E94E10C1CF00E94B70CCA
:100ACA000CF403C00E94C40C06C00E94E70C0E94EA
:100ADA00920C0E94790CA3EAB1E00E94A70CD7CF2E
:100AEA000E94D70C09F447C0C49A0E94DD0C0E94E8
:100AFA00EA0CACF4E6E9F0E04F010E94B30CAA2438
:100B0A00BB24E6E4F0E0AE16BF0644F4F6DEA6E047
:100B1A00B0E01CDEF50131965F01F3CF08950E9423
:100B2A00F70CD9F00E94D20C18974CF00E94FD0CD9
:100B3A000E94FD0C0E94FD0CAEECBFEF0CC00E949F
:100B4A00D20C18974CF40E94020D0E94020D0E94CA
:100B5A00020DA2E3B0E083DB0DC00E94960B1E9744
:100B6A001CF00E94070D06C00E94E70C0E94920C1E
:100B7A000E94790CB5CF7DC00E94E10C0CF479C0BB
:100B8A00E2E5F0E00E94BD0CACE0B0E0DFDD0E94DF
:100B9A00C80C0E94D20C18974CF40E94D70C31F062
:100BAA00A091A301B091A40154970CF017C00E9420
:100BBA00DD0C0E94B70C1CF40E94E10C24F0ACE09E
:100BCA00B0E0C4DD06C00E94E70C0E94920C0E94AD
:100BDA00790CA3EAB1E00E94A70CDBCF0E94D70CE4
:100BEA0009F447C0C49A0E94DD0C0E94EA0CACF4D6
:100BFA00E6E9F0E04F010E94B30CAA24BB24E6E424
:100C0A00F0E0AE16BF0644F478DEAAE0B0E09EDD5E
:100C1A00F50131965F01F3CF08950E94F70CD9F0E0
:100C2A000E94D20C18974CF00E94FD0C0E94FD0CF9
:100C3A000E94FD0CAEECBFEF0CC00E94D20C1897BC
:100C4A004CF40E94020D0E94020D0E94020DA2E3C2
:100C5A00B0E005DB0DC00E94960B1E971CF00E94A7
:100C6A00070D06C00E94E70C0E94920C0E94790CA4
:100C7A00B5CF0895E0E0EABBEBBBE8E1E7BBE0E013
:100C8A00E8BBE8E0E4BBE0E0E5BBEFEFE1BBE0E0B6
:100C9A00E2BBEBE6E3BFE0E0E2BFECBFE1EAEFBDB7
:100CAA00EBE0EEBDE0E0EDBDECBDE7BDE6BDEBBDC2
:100CBA00EABDE9BDE8BDE2BDECE6E5BDE0E0E4BDC4
:100CCA00E3BDE9BFE5BFE4BFEBB9E8E9EAB9E6E8A5
:100CDA00E0BDE0E0E0BDE3E3E9B9E0E8E8B9E0E47B
:100CEA00E7B9E6E8E6B9E0E0E0BFEDB9E6BF0E94A1
:100CFA00BE0DA0E10E94310B7894EFEFF0E04F01B6
:100D0A00A3E038DAE0939F01F093A001A2E032DA7F
:100D1A00E0939D01F0939E0142DB0E94660B1097BF
:100D2A0021F40E948D0B109709F002C038DBF5CF31
:100D3A0036DBE3DD4BDA0E940B0DA039E1E0BE079A
:100D4A000CF0EBC0C49AEFEFF0E04F01E09189019B
:100D5A00F0918A01309731F4A0919701B0919801EE
:100D6A00109709F003C00E94070DD6C0E0918901CF
:100D7A00F0918A01309731F4A0919701B0919801CE
:100D8A00119709F003C00E94100DC6C00E94960B6D
:100D9A001A971CF40E94AD0C09F045C0E1E0F0E09E
:100DAA00E0939701F09398010E94100DA091A10180
:100DBA00B091A201AC34E0E0BE07C9F4AA24BB2476
:100DCA00E4E6F0E0AE16BF068CF40E94140D74F44B
:100DDA00E8E3FFEFFA93EA93FA93EA93EEECFFEF74
:100DEA000E94790CF50131965F01EACF1BC0AA2453
:100DFA00BB24E4E6F0E0AE16BF06A4F40E94140D8C
:100E0A008CF4E0E0F0E0FA93EA930E94020DE8EC39
:100E1A00F0E0FA93EA93A8ECB0E021DAF501319612
:100E2A005F01E7CF79C00E949B0B54975CF40E9444
:100E3A00AD0C41F0A0918501B0918601A734E0E0A4
:100E4A00BE070CF403C00E94C40C66C0A0918501C1
:100E5A00B0918601AA35E0E0BE070CF054C0CC245C
:100E6A00DD24E0918701F0918801309769F4F60159
:100E7A000E941610FA93EA93FA93EA93FA93EA9382
:100E8A00DF01EDD9F3DD3EC00E941B0D149724F05B
:100E9A000E941B0D18970CF009C00E94200D0E9499
:100EAA00200D0E94200DA8E7B0E02BC00E941B0D68
:100EBA00189724F00E941B0D1D970CF009C00E9480
:100ECA00250D0E94250D0E94250DA8E8BFEF19C027
:100EDA000E941B0D14974CF40E942A0D0E942A0DA1
:100EEA000E942A0DA0E5B0E00CC00E941B0D1D97C0
:100EFA004CF00E942F0D0E942F0D0E942F0DA0EB87
:100F0A00BFEFADD909C0E8ECF0E04F010E941B0D1C
:100F1A001DDCEFEFF0E04F01C1C00E94D70C09F4CD
:100F2A00AAC0A9DDEFEFF0E04F01A0917D01B091D9
:100F3A007E01989744F5C49A0E94F70C19F40E940E
:100F4A00D20C1FC00E94D20C129724F40E94D20C19
:100F5A00119617C00E94D20C1F9724F00E94D20C3F
:100F6A0011970FC00E94D20C199724F40E94D20C38
:100F7A00139607C00E94D20C199724F00E94D20C33
:100F8A001397E4DB77C0A0917D01B0917E01AA3569
:100F9A00E0E0BE070CF057C0C49A0E94F70C19F49F
:100FAA000E94D20C4EC00E94D20C119719F4A1E0F3
:100FBA00B0E047C00E94D20C1F9719F4AFE0B0E02E
:100FCA0040C00E94D20C129719F4A3E0B0E039C0D5
:100FDA000E94D20C1E9719F4ADE0B0E032C00E9414
:100FEA00D20C139724F00E94D20C17970CF004C06D
:100FFA000E94D20C129625C00E94D20C1A9724F095
:10100A000E94D20C1E970CF001C016C00E94D20C8E
:10101A00179724F00E94D20C19970CF004C00E9472
:10102A00D20C12960EC00E94D20C199724F00E947C
:10103A00D20C1A970CF006C0A0917B01B0917C01EA
:10104A00129784DB17C0C4980E94F70C19F40E9407
:10105A00D20C0FC00E94D20C199724F40E94D20C11
:10106A00129607C00E94D20C199724F00E94D20C43
:10107A0012976CDB13C0E0E0E0939701E0939801CC
:10108A00C4980E949B0B5F971CF00E94100D06C02B
:10109A000E94E70C0E94920C0E94790C49CEFFCF65
:1010AA000E9474107B816A81F981E88177FB770F4E
:1010BA0067FD7160972F9E5781F078F0983190F410
:1010CA00AA27BB27882708948795B795A7959A9545
:1010DA00D1F7EA23FB23682305C0E8947727EE2794
:1010EA00FF2766276F77769508F4606877F9A991E4
:1010FA00B99189919991EA17FB076807790797FBD4
:10110A0008950E94340D0E9455080E94390D19F461
:10111A000E943C0DD3C1E6F70E943F0D0E94D50EF6
:10112A00CDC10E94741024971A930A930E94450D08
:10113A000E948A102CF0EFEFFFEF6FE77FEF6FC08E
:10114A000E944A0D0E946F10ADB7BEB711971F9348
:10115A000F930E94190E0F911F910E944F0D0E942A
:10116A00450DE3EFF4E065E37FE30E94BF0F40F42F
:10117A000E94540D0E94DC0E0E944F0D0150104037
:10118A000E94560D0E94D50E7F936F93FF93EF93A3
:10119A000E94560D0E94DC0EAF91BF918F919F91D4
:1011AA000E947A0F0E944F0D0E94540D0E945C0DFE
:1011BA00A6E2B2E485E69FE30E94630DEEE4F1E164
:1011CA0064E570E40E94680D0E94450D0E942C0F90
:1011DA007F936F93FF93EF930E946D0DADE4B1E19E
:1011EA0084ED9FE30E94D50EAF91BF918F919F919D
:1011FA000E947A0F7F936F93FF93EF93F8010E94F7
:10120A0022100E94A20EA8E1B2E781E39FE30E94A6
:10121A002C0FAF91BF918F919F910E94DC0E198183
:10122A0008812A9608950E94741028971A930A939F
:10123A000E94720DE0E5FCEA6EEA72EC0E94BF0FB2
:10124A0018F40E94770D85C0EA85FB856C857D853B
:10125A000E94861029F4E0E0F0E060E87FE379C0BC
:10126A000E94720DE8E1F2E761EB72E40E94BF0F9F
:10127A0009F008F405C0EFEFFFEF6FE77FE769C0F9
:10128A000E94720DEBE3FAEA68EB7FE30E942C0FEF
:10129A00EA87FB876C877D870E94720D32DF0E9486
:1012AA006B0E8F010E94720D0E9422100E94A20EE4
:1012BA000E94680DDF01CB01E0E0F0E060E07FE32F
:1012CA000E94680D0E944F0D0E94540D0E945C0DF1
:1012DA00ADE6BCE48CE69DE30E942C0FA6EAB3EED1
:1012EA0086EE90E40E94DC0E0E94450D0E942C0FAF
:1012FA000E944F0D0E946D0DA8E2BDE886EA91E4B6
:10130A000E94DC0EEA83FB836C837D830E944A0D74
:10131A00AA81BB818C819D810E94DC0EA3EFB4E07F
:10132A0085EB9FE30E942C0F7F936F93FF93EF93BC
:10133A000E94450D0E946D0D0E94D50EAF91BF917E
:10134A008F919F910E947A0F0E946F10D8010E947C
:10135A002A0E198108812E9608950E9474102497E6
:10136A000E947C0D0E94861019F40E94770DFFC01E
:10137A000E94810D0E948A1084F40E94860D0E94A8
:10138A00861029F4E0E0F0E060E87FE3F0C00E9414
:10139A00810D0E948B0D47DFEAC00E94860DDE0197
:1013AA000E946B0E0E945B100E943C0D0E94A20ECE
:1013BA00DF01CB010E94860D0E94901019F00E9455
:1013CA00770DD5C00E947C0D0E94920D0E948B0D54
:1013DA002ADFE887F9876A877B87E881E17019F451
:1013EA000E947C0DC4C00E947C0D0E94360EBFC0B4
:1013FA000E94741024970E94860D0E94970D0E94E5
:10140A00390D0E943C0DA5E6B0ED8BEC90E40E94EC
:10141A009E0D0E94970D7F936F93FF93EF930E9407
:10142A003C0DA0E0BDE689E291E40E94DC0E0E9438
:10143A00A70D0E949E0DAF91BF918F919F910E941F
:10144A007A0F289608950E94340DEDECF3E164EDCD
:10145A007EE30E94BF0F20F40E94A70DC9DF2EC0B1
:10146A000E94A70DEAE7F2E86AE170E40E94BF0F62
:10147A0009F008F40BC00E943F0D0E94AA0DABEDC3
:10148A00BFE089EC9FE30E94680D18C00E943F0DDF
:10149A000E94D50E7F936F93FF93EF930E943F0DA7
:1014AA000E94DC0EAF91BF918F919F910E94AA0D6D
:1014BA00ABEDBFE089E49FE30E94DC0E2496089519
:1014CA000E94741024970E94860D0E948610C9F407
:1014DA000E947C0D0E94861029F4EFEFFFEF6FE760
:1014EA007FE745C00E94810D0E948A102CF4EBED23
:1014FA00FFE069EC7FE33BC0EBEDFFE069EC7FEBDB
:10150A0036C00E94860D0E94810D0E947A0F0E94A9
:10151A00390DAC81BD818E819F810E948A107CF435
:10152A00AB85AA2322F00E94A70D8DDF20C00E945E
:10153A003C0D0E94920D87DF0E94360E18C0AB85C3
:10154A00AA2362F00E943C0D0E94920D7CDFABED53
:10155A00BFE089E490E40E94680D09C00E94A70DCB
:10156A0072DFABEDBFE089E490EC0E94DC0E2C96B2
:10157A000895AA93E5B3EF70AE2FE881E07FEA2BD6
:10158A00E5BB8DE08A95F1F7AA9A8DE08A95F1F785
:10159A00AA988DE08A95F1F70C94640BAA93A88116
:1015AA00E8DFE881E295E883A881E3DF85E88A95A8
:1015BA00F1F785C0AA93E881F0E0E955FE4FE08192
:1015CA00A981AE0FEBDFE981E093AB01E881E093FB
:1015DA00AC0122960895A2E00E94B00DACE0DEDFD5
:1015EA00A1E00E94B00DE0E0E093AC01E093AB0112
:1015FA000895AA93A881AA3031F0E091AD01A09193
:10160A00AB01AE1760F0E0E0EA93A091AC01AF5FE6
:10161A00A093AC01CFDFA881AA3009F450C0E091B1
:10162A00AB01EF5FE093AB01A89AA881B7DFA89856
:10163A0046C0BA93AA931A93E981FA813196E9834B
:10164A00FA833197E4911E2FE03019F0A12FD1DFF0
:10165A00F3CF188123960895AA93E4B3E06FE4BB0D
:10166A00A29AA09AA19AAA98A898A998E881E09320
:10167A00AD01E058E093A901E881E054E093AA01A2
:10168A00A4E1B0E00E940F0E0E94B60D0E94B60DB2
:10169A000E94B60DA0E26DDF88EC90E00197F1F7A9
:1016AA00A8E27CDFA4E07ADFA5E878DFA6E076DFAF
:1016BA0092DF05C0AA935D9BFECFE881ECB9219623
:1016CA000895A0916801B09169010895E4E6F0E0F7
:1016DA000E943A10DF01EAE0F0E00E943F10E05D6C
:1016EA00AE2F0C94FE0AEAE0F0E00E943A10DF0105
:1016FA00EAE0F0E00E943F10E05DAE2F0C94FE0A93
:10170A00EAE0F0E00E943F10E05DAE2F0C94FE0A82
:10171A00A0916A01B0916B010895EA93A1E00C943B
:10172A00DF0AA0918F01B09190010895A0919101D3
:10173A00B09192010895E0937001F09371010C94B5
:10174A00CE000E94CE00AFEFEA9FF0010895A0916B
:10175A007201B09173010895A0917701B091780157
:10176A00E0916A01F0916B01EA1BFB0B0E942210C7
:10177A000E94A20E0E946F100895A0917501B09167
:10178A007601E0916801F0916901EA1BFB0B0E9466
:10179A0022100E94A20E0895DF01CB010E94650A61
:1017AA00A0E0B0E084E393E40E942C0FDF01CB01B8
:1017BA00EBEDFFE069E470E40E947A0F08950E945D
:1017CA006B0EED93FC930895E0917901F0917A0103
:1017DA000895FADF0E9422100E94A20EDF01CB01B7
:1017EA000895E0E0F0E064E371E40895E0E0F0E4F5
:1017FA006EEA73E40E94BF0F0895F3DF0E94791026
:10180A000E94D50E0895F5010E9422100E94A20E90
:10181A00A0E0B0E084EB91E40E942C0F0895F5015A
:10182A0031960E9422100E94A20EA0E0B0E084EB42
:10183A0091E40E942C0F08950E946F10A0E0B0E07E
:10184A0080E090E40C94B2090E94DC0EDF01CB0127
:10185A000C94DF0FA0917701B0917801E09181019A
:10186A00F0918201EA1BFB0B0E9422100E94A20E39
:10187A000895A0917501B0917601E0917F01F091F0
:10188A008001EA1BFB0B0E9422100E94A20E0895FF
:10189A00E0918301F09184010895FADF0E942210F9
:1018AA000E94A20EDF01CB0108959A928A92F40156
:1018BA000E9416100895FA93EA93F4010E941610F2
:1018CA0008959A928A92D401E2E0F0E00E943A10D6
:1018DA000895DF01E2E0F0E00E943A1008959A923A
:1018EA008A92E0E0F0E0E7CFFA93EA93A0E0B0E072
:1018FA000C943401FA93EA93D401E2E0F0E00E94F6
:10190A003A100895FA93EA93D4010C943401D4015D
:10191A00E2E0F0E00E943A100895FA93EA93E0E0D8
:10192A00F0E00895F4010E941610BF010895F40131
:10193A000E941610FA93EA930895FA93EA939A92F8
:10194A008A920895ED91FD913196FE93EE93089552
:10195A00E0919701F091980130970895A4E6B0E0DC
:10196A000C940F0EA0919B01B0919C01DD970895F4
:10197A00E093A101F093A201CC24DD240895A4E010
:10198A00B0E00C94AB03A8ECB0E00E940F0EE0E0CC
:10199A00E093A301E093A4010895A0917B01B09183
:1019AA007C010895E0919501F09196013097089590
:1019BA000E9482040C94D401A0919901B0919A01D9
:1019CA00DD970895E0E0F0E0A8CFCC24DD24E4E63A
:1019DA00F0E04F01A0919301B0919401A039E1E0A8
:1019EA00BE070895E0917B01F0917C01309708953C
:1019FA00EEECFFEFFA93EA930895E2E3F0E0FA934C
:101A0A00EA930895A0E0B0E00C94AB03A09193018F
:101A1A00B09194010895A8E0B0E00C94AB030E9441
:101A2A008204F4DFA139E1E0BE070895A09187019D
:101A3A00B09188010895E8E7F0E0FA93EA930895EF
:101A4A00E8E8FFEFFA93EA930895E0E5F0E0FA9305
:101A5A00EA930895E0EBFFEFFA93EA9308950E9460
:101A6A0074100E94651008950E946A1008950E94D9
:101A7A0060100895FCDFA0E0B0E080E89FE30895DD
:101A8A00AE81BF81888599850895EE81FF81688539
:101A9A0079850895EE83FF83688779870895F5DF4E
:101AAA00EFCFF3DFA0E0B0E080E89FE308950E9463
:101ABA002C0FEA83FB836C837D8308950E942C0F8D
:101ACA00DF01CB0108950E9479100E94D50E089576
:101ADA00EA81FB816C817D810895AA85BB858C850D
:101AEA009D850895E0E0F0E060E070E00895E88503
:101AFA00F9856A857B850895A885B9858A859B8538
:101B0A000895EC81FD816E817F8108950E94960877
:101B1A00AC81BD818E819F81D1CF0E94360EDF01BB
:101B2A00CB010895AC81BD818E819F810E942C0FCB
:101B3A0008950E942C0FAEE4BFE88AE491E40E9463
:101B4A00DC0E08950E94651008950E947A0FDF0145
:101B5A00CB010C94FD090E94D30AA3E0B0E00C94D7
:101B6A000F0EA0E30E94BE0A88EC90E00197F1F7FD
:101B7A000895C098C198B89AB99815C0B998B898F4
:101B8A00EE270000B19B0895B09B089504D0B99A3E
:101B9A0002D0B89AE1E06DE007C0B99AB89A03D0CA
:101BAA00B898F9DFB9986BE16A95F1F7089578E08A
:101BBA00B898F1DFB09BFECFEEDF8894B199089414
:101BCA00B89AF1DFEE1F7A9599F77A2F772311F4F5
:101BDA00B99801C0B99ADFDFB898E5DFB89ADBDFB8
:101BEA00B998D9CF78E0AA0F10F4B99801C0B99A78
:101BFA00DADFB898D0DFB09BFECFCDDFB89A7A95FE
:101C0A0091F7B998C8DFB898CEDFE1E0B199EE272D
:101C1A00B89AC1CF109639F080ED97E00197F1F7A5
:101C2A00A8951197C9F70895E991F9916991799160
:101C3A0077FB660F771F88277E57880B7D938C93D7
:101C4A007EE7769567956EF00895E991F991699125
:101C5A00799177FB660F771F7A0F769567950EF065
:101C6A00089530976040704009F0705808955523E0
:101C7A0042F4503811F4E0FF04C03196691F791F0D
:101C8A006BF050E8572711F45F93CFC05F3F31F0F4
:101C9A00660F000C57956795752F08955F9300207E
:101CAA000AF0CFC0C8C050E8192E1522880F991F14
:101CBA009527550F879550E8072E0522660F771F3F
:101CCA007527550F67950895689401C0E8945F9346
:101CDA00F2DF703818F07F3F08F4A7C056E1571BAF
:101CEA00AAF4519558300EF4593030F0EFEFFFEF67
:101CFA006FEF7FE777F91AC077275523B9F0EE0F10
:101D0A00FF1F661F771F5A95D1F710C077275830E3
:101D1A0028F0EF2FF62F672F5850F9CF552331F0BF
:101D2A0076956795F795E7955A95D1F700200AF4C5
:101D3A007CD15F910895689401C0E894309760401F
:101D4A007040B1F0002426F0772312F400946DD18C
:101D5A00172E7EE1112032F07A95EE0FFF1F661FD3
:101D6A00111CF9CFEF2FF62F612D5F938ADF5F9158
:101D7A0008954F93AF01FD01DA01AB01BC01CA011D
:101D8A00402D012C142E4F910895EA0FFB1F681F56
:101D9A000895E095F0956095EF5FFF4F6F4F0895B6
:101DAA005F9381DF903871F150E8152604C05F9384
:101DBA007ADF903839F1703821F1572F591B2BF1FE
:101DCA0012F4D7DFFACF583118F0AA27BB27882791
:101DDA00583028F0AB2FB82F88275850F9CF552301
:101DEA0029F08695B795A7955A95D9F7502D51257B
:101DFA0072F0CBDF38F46795F795E795739513F48E
:101E0A0020C0B7DF3EDF5F910895D8F7FBCFEA1B0A
:101E1A00FB0B680B51F010F40094BBDF662392F3BE
:101E2A00EE0FFF1F661F7A95CBF7EE27FF2766276F
:101E3A0077275F910895EFEFFFEF6FE77FEF5F91ED
:101E4A000895EFEFFFEF6FE77FE75F9108955F93E4
:101E5A002ADF703851F3903841F301240894791F2E
:101E6A0023F41CF300203AF3ECCF0F921F932F9325
:101E7A003F934F93112722279927689FA0018F9F8D
:101E8A00302D410D591F6B9F300D411D591F8E9FDB
:101E9A0027D0BF9F25D06A9F23D0BE9F1DD0AF9F5A
:101EAA001BD0AE9F110D291F391F491F591FE32F40
:101EBA00F42F652F522F4F913F912F911F910F9021
:101ECA0066232AF0550FEE1FFF1F661F02C0739587
:101EDA004BF2CDDE5F910895100D211D391F02C00E
:101EEA00200D311D491F591F08955F93DCDE70389C
:101EFA0021F411200AF49FCFA4CF903809F495CF8A
:101F0A0001240894970B1BF4D4F30020F3CF792F04
:101F1A001F932F933F934F9311241127222733277F
:101F2A004427552790E2AE17BF078607410730F0CE
:101F3A00AE1BBF0B860B410B089401C08894551F3A
:101F4A00221F331F111CAA1FBB1F881F441F9A95EB
:101F5A0051F7F901612D4F913F912F911F916623FE
:101F6A0032F0550FEE1FFF1F661F7A9543F27FDE90
:101F7A005F91089599239AF0772342F0971748F0D2
:101F8A0029F4AE17BF07860720F031F09894889499
:101F9A000895989408940895189488940895772336
:101FAA00C2F7971798F3A9F7EA17FB07680788F3A8
:101FBA0099F3ECCF94D024975F939F81992311F4DE
:101FCA00289633CF12F428963CCF4F9342E48E8161
:101FDA00BD81AC8188839983AA83BB83FD01BC013F
:101FEA00AC81BD818E819F8180DF88819981AA81A0
:101FFA00BB81DDDE60DE7A9544DE88819981AA8123
:10200A00BB81AE27A87F21F4BF178607970729F05F
:10201A004A9519F0DF01CB01DDCF4F915F912896E8
:10202A000895F195E195F0400895F09560957095C1
:10203A00E195FF4F6F4F7F4F08956F2F660F660B25
:10204A00762F08950024112490E1AA0FBB1F001CCB
:10205A00111C0E1A1F0A18F40E0E1F1E01C0A160D1
:10206A009A9599F7FD01D001089512D0EBDF0EF48D
:10207A00D8DF0895E894B7FF04C0A095B0951196EB
:10208A006894F7FDCEDFDEDFFD010EF4CADF0895A6
:10209A00E894F7FF02C0C5DF6894B7FF06C0A095B1
:1020AA00B095119600F8039400FA0895ED93FD9304
:1020BA006D937C930895E881F9816A817B81089503
:1020CA00A881B9818A819B810895E883F9836A830B
:1020DA007B8308957A936A93FA93EA9308959A937D
:1020EA008A93BA93AA930895182E862F612D192ED2
:1020FA00972F712D1B2EBF2FF12D1A2EAE2FE12DEA
:10210A000895309760407040089500240A160B061F
:10211A00080609060895EA17FB076807790708956C
:00000001FF
