:100000000C9457000C9400000C9400000C94000019
:100010000C9400000C9400000C9400000C94000060
:100020000C9400000C9400000C9400000C948400CC
:100030000C9400000C9400000C9400000C94000040
:100040000C9400000C9400000C9400000C94000030
:100050000C9400001027E80364000A00010000105F
:10006000000110000100000000000000FF009600E9
:100070006400540080C001002D4E414E00494E46A0
:100080000000010002006600060004006800010094
:1000900075016E000100770170000100930172008C
:1000A00002009501740001009C0176000000F894A4
:1000B000EE27ECBBF1E0FBBFEBBFE5BF8DE0A2E0BC
:1000C000BB27ED938A95E9F780E094E0A0E6ED93F5
:1000D0000197E9F7E2E8F0E085919591009761F0EA
:1000E000A591B59105901590BF01F00105900D9275
:1000F0000197E1F7FB01F0CFEFE5EDBFE4E0EEBFE4
:10010000C0E6D1E00C94CA04EA93FA93EFB7EA93FD
:100110001A930A931BB10CB1E12FEC7189F4E52D10
:100120005394F0E0E05AFE4F0083E8E0E51509F44F
:1001300055247394E8E0E71519F47724689420F8BF
:1001400009911991E991EFBFF991E99118951A93E5
:100150007720F1F3E42D4394F0E0E05AFE4F108154
:10016000E8E0E41509F44424F8947A94789429C0DA
:10017000AA93E881E064E7B98BE18A95F1F7369AB2
:10018000349BFECF349AE4B1F5B1219608951A93C9
:100190000E94360BA8EA0E946A0BE0919401AE2FF0
:1001A0000E946A0BA09193010E946A0B0E94360B79
:1001B000A9EA0E946A0BA0E00E944F0B1E2F0E942A
:1001C000450BE12F19910895BA93AA93A981AA2307
:1001D00062F0ABE20E9441090E9446090E94410977
:1001E0000E9452090E9441090BC0ADE20E945E09C3
:1001F0000E9446090E945E090E9452090E945E09FF
:10020000EAE0F0E00E94660922960895BA93AA9364
:10021000F601AE81BF81EA0FFB1FEE83FF83F6017B
:10022000AC81BD81EA0FFB1FEC83FD83F601A88141
:10023000B981EA0FFB1FE883F983F601AA81BB812C
:10024000EA0FFB1FEA83FB83A881B981A030E1E0BC
:10025000BE0724F0EFEFF0E0E883F983AA81BB81C9
:10026000A030E1E0BE0724F0EFEFF0E0EA83FB838B
:10027000AC81BD81A030E1E0BE0724F0EFEFF0E0FB
:10028000EC83FD83AE81BF81A030E1E0BE0724F0A6
:10029000EFEFF0E0EE83FF83A881B981A130EFEFAB
:1002A000BE0724F4E1E0FFEFE883F983AA81BB8174
:1002B000A130EFEFBE0724F4E1E0FFEFEA83FB8318
:1002C000AC81BD81A130EFEFBE0724F4E1E0FFEF88
:1002D000EC83FD83AE81BF81A130EFEFBE0724F434
:1002E000E1E0FFEFEE83FF83AF81AA231AF0C2980B
:1002F000EE8103C0C29AEE81E150ECBFAD81AA232A
:1003000022F09298EC81FD8105C0929AEC81FD81EA
:10031000E150FF4FF9BDE8BDAB81AA2322F09398CD
:10032000EA81FB8105C0939AEA81FB81E150FF4F8E
:10033000FBBDEABDA981AA231AF09698E88103C003
:10034000969AE881E150E3BD2896089520DF6E2E4D
:10035000EAEAE61509F096C01ADF6E2EE5E5E61525
:1003600009F090C014DF13DFF0E00E946C09AFEFDA
:10037000EA9FF001A0917001B0917101EA0FFB1F9B
:100380000E946C09F0E0E0937201F09373010E9407
:1003900072090E947809EA0FFB1FE0937201F09343
:1003A00073010E947809119729F5F1DEF0E0E093DE
:1003B0006801F09369010E947209A0916801B091EF
:1003C0006901EA0FFB1FE0936801F0936901DFDE2A
:1003D000F0E0E0936A01F0936B010E947209A09132
:1003E0006A01B0916B01EA0FFB1FE0936A01F09381
:1003F0006B0124C0CCDEF0E0E0937F01F09380013C
:100400000E947209A0917F01B0918001EA0FFB1F49
:10041000E0937F01F0938001BADEF0E0E093810188
:10042000F09382010E947209A0918101B091820132
:10043000EA0FFB1FE0938101F0938201A8DEF0E058
:10044000E0936C01F0936D010E947209A0916C0120
:10045000B0916D01EA0FFB1FE0936C01F0936D0109
:1004600096DEF0E0E0936E01F0936F010E94720956
:10047000A0916E01B0916F01EA0FFB1FE0936E0136
:10048000F0936F01662021F00E947809119709F01E
:1004900007C0E1E0F0E0E0939101F09392011CC00D
:1004A000662021F00E947809129709F00CC0E1E063
:1004B000F0E0E0938901F0938A01E0E0E09391019C
:1004C000E093920109C0E0E0E0939101E093920192
:1004D000E0938901E0938A010E947D090E948E09C0
:1004E0000E949D09A9E7B1E00E94B009A0917A019C
:1004F000AA2342F40E94B509E859FE4FE09379011E
:10050000F0937A01A0917901B0917A01E8E6F1E0E7
:10051000EA1BFB0BE0937901F0937A01AA24BB2438
:10052000E0E1F0E0AE16BF060CF047C00E94BA0949
:100530000E94C2090E94320D11F008F006C0E0E0EE
:10054000E0937B01E0937C0134C00E94BA090E94D1
:10055000C70930F0E0E0E0937B01E0937C0129C023
:100560000E94BA090E94CE097F936F93FF93EF9385
:100570000E94D409AF91BF918F919F910E94320D3B
:1005800088F00E94BA090E94CE097F936F93FF936F
:10059000EF930E94E009AF91BF918F919F910E94CC
:1005A000320D08F006C0F5013196E0937B01F0931F
:1005B0007C01F50131965F01B3CF0E948E090E9444
:1005C000ED097F936F93FF93EF930E947D09A0E065
:1005D000B0E080E090E40E94A007AF91BF918F91BE
:1005E0009F910E94F509ADE7B1E00E94B0090E9419
:1005F000FB090E94E20D0E940A0A0E949D09A3E8DD
:10060000B1E00E94B009A0918401AA2342F40E94A3
:10061000190AE859FE4FE0938301F0938401A091F9
:100620008301B0918401E8E6F1E0EA1BFB0BE09363
:100630008301F0938401AA24BB24E0E1F0E0AE162C
:10064000BF060CF047C00E941E0A0E94C2090E9409
:10065000320D11F008F006C0E0E0E0938701E0936E
:10066000880134C00E941E0A0E94C70930F0E0E0F1
:10067000E0938701E093880129C00E941E0A0E942E
:10068000CE097F936F93FF93EF930E94D409AF91AC
:10069000BF918F919F910E94320D88F00E941E0A97
:1006A0000E94CE097F936F93FF93EF930E94E0091E
:1006B000AF91BF918F919F910E94320D08F006C0BB
:1006C000F5013196E0938701F0938801F5013196A9
:1006D0005F01B3CF0E940A0A0E94ED097F936F93D6
:1006E000FF93EF930E94FB090E94ED09AF91BF9128
:1006F0008F919F910E94F509A5E8B1E00E94B00991
:10070000E0E0EA93A0E00E94CD08A2E40E94260A5D
:100710000E9452090E94260A0E942D0AE5E0EA93EF
:10072000A0E00E94CD08A7E40E94300A0E9452096E
:100730000E94300A0E942D0A0895BA93AA93E88174
:10074000F981309741F49A928A920E94370A0E9466
:100750003D0ADF015BDDA881B981119751F40E9448
:10076000430A0E943D0A0E943D0A0E944B0ADF0193
:100770004DDDA881B981129721F40E94510A0E948F
:10078000560AA881B981139751F40E94370A0E9432
:100790004B0A0E943D0A0E945C0ADF0137DDA881F6
:1007A000B981149731F40E94370A0E943D0A0E94D1
:1007B000640AA881B981159751F40E94690A0E94C0
:1007C0003D0A0E943D0A0E944B0A0E94640AA881C9
:1007D000B981169741F4E0E0F0E00E943D0A0E94E2
:1007E0006F0A0E94640AA881B981179761F40E9478
:1007F000740A0E944B0AFA93EA937A936A930E94CE
:10080000690A0E94640AA881B981189731F40E948C
:10081000790A0E947F0AD401F9DCA881B98119976D
:1008200051F40E94790A0E944B0AFA93EA930E94BB
:10083000430ADF01EBDCA881B9811A9751F4F40176
:100840000E94890D0E946F0A0E947F0AA0E0B0E01A
:10085000DDDCA881B9811B9769F40E94740A0E94AB
:100860005C0A0E947F0ADB01E2E0F0E00E94AD0D2D
:10087000DF01CCDCA881B9811C9741F40E94790A80
:100880009A928A929A928A92DF01C0DCA881B981F9
:100890001D9761F40E94740A0E944B0AFA93EA932E
:1008A0000E94430AFA93EA93DB01B0DCA881B98184
:1008B0001E9741F4E0E0F0E0FA93EA930E94510AB7
:1008C000DF01A4DCA881B9811F9761F40E94690A45
:1008D000FA93EA930E94370A0E944B0A0E943D0A4B
:1008E000DF0194DC0C94DC08A5EA0E943A09A2E539
:1008F0000E943A092CDCE0937401A0917401AA3A99
:1009000049F425DCF0E0A0918D01B0918E01EA0F51
:10091000FB1F6F01A0918B01B0918C01A83CE0E01E
:10092000BE0764F0ADE8B1E0ED91FD913196FE9324
:10093000EE93E0E0E0938B01E0938C01ABE8B1E053
:10094000ED91FD913196FE93EE93E0E8F0E0EC1529
:10095000FD0524F4EFEFF0E0CE1ADF0AE0E0EA93C1
:10096000A1E00E94CD08D6012FDCEEE1F0E0CE162A
:10097000DF062CF4E2EEFFEFEC15FD050CF002C0F3
:10098000CC0CDD1C0895AB9AA4E6B0E00E94820B6B
:10099000AB980895E0E0EABBEBBBE8E1E7BBE0E041
:1009A000E8BBE8E0E4BBE0E0E5BBEFEFE1BBE0E0A3
:1009B000E2BBEBE6E3BFE0E0E2BFECBFE1EAEFBDA4
:1009C000EBE0EEBDE0E0EDBDECBDE7BDE6BDEBBDAF
:1009D000EABDE9BDE8BDE2BDECE6E5BDE0E0E4BDB1
:1009E000E3BDE9BFE5BFE4BFEBB9E8E9EAB9E6E892
:1009F000E0BDE0E0E0BDE3E3E9B9E0E8E8B9E0E468
:100A0000E7B9E6E8E6B9E0E0E0BFEDB9E6BF0E948D
:100A1000310BA0E10E940C097894EFEFF0E04F0158
:100A200095DCA0916801B0916901109731F4A09113
:100A30006A01B0916B01109709F002C087DCF1CF19
:100A400085DC52DFA0E094DBE0938F01F09390010E
:100A5000E5E0EA93A1E00E94CD080E94840AE8EE56
:100A6000F3E00E94AD0DDF010E942D0A0E94840A6E
:100A70000E9446090E94EC080E94840A0E945209C2
:100A80000E94EC080E94840A0E942D0A0E94840A97
:100A9000A039E1E0BE070CF07CC0C49AE091890166
:100AA000F0918A01309771F4EAE6FFEFFA93EA9346
:100AB000FA93EA93E6E9F0E0FA93EA93A6E9B0E064
:100AC000A5DB66C0A0918501B0918601A634E0E067
:100AD000BE070CF054C0CC24DD24E0918701F091D6
:100AE0008801309769F4F6010E94890DFA93EA9320
:100AF000FA93EA93FA93EA93DF0188DB44DF3EC07E
:100B00000E94890A149724F00E94890A18970CF011
:100B100009C00E948E0A0E948E0A0E948E0AA8E7CF
:100B2000B0E02BC00E94890A189724F00E94890A1D
:100B30001D970CF009C00E94930A0E94930A0E941C
:100B4000930AA8E8BFEF19C00E94890A14974CF4D1
:100B50000E94980A0E94980A0E94980AA0E5B0E0B4
:100B60000CC00E94890A1D974CF00E949D0A0E94A9
:100B70009D0A0E949D0AA0EBBFEF48DB09C0E6E991
:100B8000F0E04F010E94890AD8DDEFEFF0E04F015D
:100B900078C0E0919101F0919201309709F468C01A
:100BA000A0917D01B0917E01AA35E0E0BE070CF076
:100BB0005AC0C49AE0917B01F0917C01309719F4FE
:100BC0000E94A20A4EC00E94A20A119719F4A2E044
:100BD000B0E047C00E94A20A1F9719F4AEE0B0E04F
:100BE00040C00E94A20A129719F4A4E0B0E039C0F4
:100BF0000E94A20A1E9719F4ACE0B0E032C00E9435
:100C0000A20A139724F00E94A20A17970CF004C0BE
:100C10000E94A20A129625C00E94A20A1A9724F0E6
:100C20000E94A20A1E970CF001C016C00E94A20AE0
:100C3000179724F00E94A20A19970CF004C00E9492
:100C4000A20A12960EC00E94A20A199724F00E94CE
:100C5000A20A1A970CF006C0A0917B01B0917C010A
:100C600012976BDD04C0C4980E94A20A66DD09C019
:100C7000C498E0E0F0E00E946F0A0E946F0A0E94B0
:100C8000560ADECEFFCF0E94E70D7B816A81F98193
:100C9000E88177FB770F67FD7160972F9E5781F092
:100CA00078F0983190F4AA27BB2788270894879575
:100CB000B795A7959A95D1F7EA23FB23682305C03A
:100CC000E8947727EE27FF2766276F77769508F455
:100CD000606877F9A991B99189919991EA17FB0711
:100CE0006807790797FB08950E94A70A0E944306A8
:100CF0000E94AC0A19F40E94AF0AD3C1E6F70E9421
:100D0000B20A0E94480CCDC10E94E70D24971A93A5
:100D10000A930E94B80A0E94FD0D2CF0EFEFFFEF3E
:100D20006FE77FEF6FC00E94BD0A0E94E20DADB772
:100D3000BEB711971F930F930E948C0B0F911F91B9
:100D40000E94C20A0E94B80AE3EFF4E065E37FE381
:100D50000E94320D40F40E94C70A0E944F0C0E946C
:100D6000C20A015010400E94C90A0E94480C7F9399
:100D70006F93FF93EF930E94C90A0E944F0CAF91AB
:100D8000BF918F919F910E94ED0C0E94C20A0E9418
:100D9000C70A0E94CF0AA6E2B2E485E69FE30E945A
:100DA000D60AEEE4F1E164E570E40E94DB0A0E94F9
:100DB000B80A0E949F0C7F936F93FF93EF930E945A
:100DC000E00AADE4B1E184ED9FE30E94480CAF91ED
:100DD000BF918F919F910E94ED0C7F936F93FF9332
:100DE000EF93F8010E94950D0E94150CA8E1B2E75F
:100DF00081E39FE30E949F0CAF91BF918F919F91E0
:100E00000E944F0C198108812A9608950E94E70DCF
:100E100028971A930A930E94E50AE0E5FCEA6EEA35
:100E200072EC0E94320D18F40E94EA0A85C0EA852D
:100E3000FB856C857D850E94F90D29F4E0E0F0E0EA
:100E400060E87FE379C00E94E50AE8E1F2E761EB40
:100E500072E40E94320D09F008F405C0EFEFFFEFD5
:100E60006FE77FE769C00E94E50AEBE3FAEA68EB07
:100E70007FE30E949F0CEA87FB876C877D870E9437
:100E8000E50A32DF0E94DE0B8F010E94E50A0E9414
:100E9000950D0E94150C0E94DB0ADF01CB01E0E0FA
:100EA000F0E060E07FE30E94DB0A0E94C20A0E9439
:100EB000C70A0E94CF0AADE6BCE48CE69DE30E941F
:100EC0009F0CA6EAB3EE86EE90E40E944F0C0E94BF
:100ED000B80A0E949F0C0E94C20A0E94E00AA8E27F
:100EE000BDE886EA91E40E944F0CEA83FB836C83A1
:100EF0007D830E94BD0AAA81BB818C819D810E9455
:100F00004F0CA3EFB4E085EB9FE30E949F0C7F930F
:100F10006F93FF93EF930E94B80A0E94E00A0E9429
:100F2000480CAF91BF918F919F910E94ED0C0E9450
:100F3000E20DD8010E949D0B198108812E9608951B
:100F40000E94E70D24970E94EF0A0E94F90D19F400
:100F50000E94EA0AFFC00E94F40A0E94FD0D84F478
:100F60000E94F90A0E94F90D29F4E0E0F0E060E83F
:100F70007FE3F0C00E94F40A0E94FE0A47DFEAC045
:100F80000E94F90ADE010E94DE0B0E94CE0D0E9433
:100F9000AF0A0E94150CDF01CB010E94F90A0E94E2
:100FA000030E19F00E94EA0AD5C00E94EF0A0E94BF
:100FB000050B0E94FE0A2ADFE887F9876A877B878C
:100FC000E881E17019F40E94EF0AC4C00E94EF0AA0
:100FD0000E94A90BBFC00E94E70D24970E94F90A46
:100FE0000E940A0B0E94AC0A0E94AF0AA5E6B0ED6F
:100FF0008BEC90E40E94110B0E940A0B7F936F937D
:10100000FF93EF930E94AF0AA0E0BDE689E291E46E
:101010000E944F0C0E941A0B0E94110BAF91BF91BE
:101020008F919F910E94ED0C289608950E94A70A27
:10103000EDECF3E164ED7EE30E94320D20F40E94BA
:101040001A0BC9DF2EC00E941A0BEAE7F2E86AE128
:1010500070E40E94320D09F008F40BC00E94B20A3D
:101060000E941D0BABEDBFE089EC9FE30E94DB0A01
:1010700018C00E94B20A0E94480C7F936F93FF939E
:10108000EF930E94B20A0E944F0CAF91BF918F91D3
:101090009F910E941D0BABEDBFE089E49FE30E948E
:1010A0004F0C249608950E94E70D24970E94F90A98
:1010B0000E94F90DC9F40E94EF0A0E94F90D29F46B
:1010C000EFEFFFEF6FE77FE745C00E94F40A0E9451
:1010D000FD0D2CF4EBEDFFE069EC7FE33BC0EBEDA5
:1010E000FFE069EC7FEB36C00E94F90A0E94F40A27
:1010F0000E94ED0C0E94AC0AAC81BD818E819F8163
:101100000E94FD0D7CF4AB85AA2322F00E941A0BED
:101110008DDF20C00E94AF0A0E94050B87DF0E946E
:10112000A90B18C0AB85AA2362F00E94AF0A0E94E7
:10113000050B7CDFABEDBFE089E490E40E94DB0AA5
:1011400009C00E941A0B72DFABEDBFE089E490EC9E
:101150000E944F0C2C960895AA93E5B3EF70AE2F22
:10116000E881E07FEA2BE5BB8DE08A95F1F7AA9A4A
:101170008DE08A95F1F7AA988DE08A95F1F70C94A5
:101180003F09AA93A881E8DFE881E295E883A88176
:10119000E3DF85E88A95F1F772C0AA93E881F0E071
:1011A000EB56FE4FE081A981AE0FEBDFE981E093C2
:1011B0009901E881E0939A0122960895A2E00E94A5
:1011C000230BACE0DEDFA1E00E94230BE0E0E09324
:1011D0009A01E09399010895AA93A881AA3031F069
:1011E000E0919B01A0919901AE1760F0E0E0EA93D5
:1011F000A0919A01AF5FA0939A01CFDFA881AA3096
:1012000009F43DC0E0919901EF5FE0939901A89A3C
:10121000A881B7DFA89833C0AA93E4B3E06FE4BB1A
:10122000A29AA09AA19AAA98A898A998E881E0936E
:101230009B01E058E0939701E881E054E093980126
:10124000A4E1B0E00E94820B0E94290B0E94290BAE
:101250000E94290BA0E280DF88EC90E00197F1F773
:10126000A8E28FDFA4E08DDFA5E88BDFA6E089DFB1
:10127000A5DF05C0AA935D9BFECFE881ECB921965E
:1012800008950E94EC08A881B9810895E4E6F0E091
:101290000E94AD0DDF01EAE0F0E00E94B20DE05DDA
:1012A000AE2F0895EAE0F0E00E94AD0DDF01EAE024
:1012B000F0E00E94B20DE05DAE2F08950E94EC08B0
:1012C000E881F9810E94890DDF0108950E94B20D25
:1012D000E05DAE2F0C94EC08E0937001F093710187
:1012E0000C94C7000E94C700AFEFEA9FF001089579
:1012F000A0917201B09173010895A0917701B0910E
:101300007801E0916A01F0916B01EA1BFB0B0E94EE
:10131000950D0E94150C0E94E20D0895A091750193
:10132000B0917601E0916801F0916901EA1BFB0B35
:101330000E94950D0E94150C0895DF01CB010E94BB
:101340005308A0E0B0E084E393E40E949F0CDF0127
:10135000CB01EBEDFFE069E470E40E94ED0C089531
:101360000E94DE0BED93FC930895E0917901F091DA
:101370007A010895FADF0E94950D0E94150CDF0195
:10138000CB010895E0E0F0E064E371E40895E0E06B
:10139000F0E46EEA73E40E94320D0895F3DF0E94D8
:1013A000EC0D0E94480C0895F5010E94950D0E94D5
:1013B000150CA0E0B0E084EB91E40E949F0C08952E
:1013C000F50131960E94950D0E94150CA0E0B0E049
:1013D00084EB91E40E949F0C08950E94E20DA0E02E
:1013E000B0E080E090E40C94A0070E944F0CDF0175
:1013F000CB010C94520DA0917701B0917801E0914E
:101400008101F0918201EA1BFB0B0E94950D0E9465
:10141000150C0895A0917501B0917601E0917F01BE
:10142000F0918001EA1BFB0B0E94950D0E94150CA8
:101430000895E0918301F09184010895FADF0E94FC
:10144000950D0E94150CDF01CB0108950E94EC0858
:10145000A0917B01B0917C010895EAE0F0E036CFE5
:101460000E94EC08A0918701B091880108959A929A
:101470008A92F4010E94890D0895FA93EA93F40187
:101480000E94890D08959A928A92D401E2E0F0E0D8
:101490000E94AD0D0895DF01E2E0F0E00E94AD0D85
:1014A00008959A928A92E0E0F0E0E7CFFA93EA9307
:1014B000A0E0B0E00C940601FA93EA93D401E2E0D4
:1014C000F0E00E94AD0D0895FA93EA93D4010C94D4
:1014D0000601D401E2E0F0E00E94AD0D0895FA9318
:1014E000EA93E0E0F0E00895F4010E94890DBF0165
:1014F0000895F4010E94890DFA93EA930895FA93EE
:10150000EA939A928A920895A0918F01B0919001E6
:101510000895A0918701B09188010895E8E7F0E06F
:10152000FA93EA930895E8E8FFEFFA93EA930895AF
:10153000E0E5F0E0FA93EA930895E0EBFFEFFA9329
:10154000EA930895A0917B01B0917C0108950E94D7
:10155000E70D0E94D80D08950E94DD0D08950E94A8
:10156000D30D0895FCDFA0E0B0E080E89FE308958C
:10157000AE81BF81888599850895EE81FF81688558
:1015800079850895EE83FF83688779870895F5DF6D
:10159000EFCFF3DFA0E0B0E080E89FE308950E9482
:1015A0009F0CEA83FB836C837D8308950E949F0CCC
:1015B000DF01CB0108950E94EC0D0E94480C0895B4
:1015C000EA81FB816C817D810895AA85BB858C852C
:1015D0009D850895E0E0F0E060E070E00895E88522
:1015E000F9856A857B850895A885B9858A859B8557
:1015F0000895EC81FD816E817F8108950E948406AB
:10160000AC81BD818E819F81D1CF0E94A90BDF016A
:10161000CB010895AC81BD818E819F810E949F0C7A
:1016200008950E949F0CAEE4BFE88AE491E40E9412
:101630004F0C08950E94D80D08950E94ED0CDF0113
:10164000CB010C94EB070E94C108A3E0B0E00C941E
:10165000820BA0E30E94AC0888EC90E00197F1F7C0
:101660000895C098C198B89AB99815C0B998B89813
:10167000EE270000B19B0895B09B089504D0B99A5D
:1016800002D0B89AE1E06DE007C0B99AB89A03D0E9
:10169000B898F9DFB9986BE16A95F1F7089578E0A9
:1016A000B898F1DFB09BFECFEEDF8894B199089433
:1016B000B89AF1DFEE1F7A9599F77A2F772311F414
:1016C000B99801C0B99ADFDFB898E5DFB89ADBDFD7
:1016D000B998D9CF78E0AA0F10F4B99801C0B99A97
:1016E000DADFB898D0DFB09BFECFCDDFB89A7A951D
:1016F00091F7B998C8DFB898CEDFE1E0B199EE274D
:10170000B89AC1CF109639F080ED97E00197F1F7C4
:10171000A8951197C9F70895E991F991699179917F
:1017200077FB660F771F88277E57880B7D938C93F6
:101730007EE7769567956EF00895E991F991699144
:10174000799177FB660F771F7A0F769567950EF084
:10175000089530976040704009F0705808955523FF
:1017600042F4503811F4E0FF04C03196691F791F2C
:101770006BF050E8572711F45F93CFC05F3F31F013
:10178000660F000C57956795752F08955F9300209D
:101790000AF0CFC0C8C050E8192E1522880F991F33
:1017A0009527550F879550E8072E0522660F771F5E
:1017B0007527550F67950895689401C0E8945F9365
:1017C000F2DF703818F07F3F08F4A7C056E1571BCE
:1017D000AAF4519558300EF4593030F0EFEFFFEF86
:1017E0006FEF7FE777F91AC077275523B9F0EE0F2F
:1017F000FF1F661F771F5A95D1F710C07727583003
:1018000028F0EF2FF62F672F5850F9CF552331F0DE
:1018100076956795F795E7955A95D1F700200AF4E4
:101820007CD15F910895689401C0E894309760403E
:101830007040B1F0002426F0772312F400946DD1AB
:10184000172E7EE1112032F07A95EE0FFF1F661FF2
:10185000111CF9CFEF2FF62F612D5F938ADF5F9177
:1018600008954F93AF01FD01DA01AB01BC01CA013C
:10187000402D012C142E4F910895EA0FFB1F681F75
:101880000895E095F0956095EF5FFF4F6F4F0895D5
:101890005F9381DF903871F150E8152604C05F93A3
:1018A0007ADF903839F1703821F1572F591B2BF11D
:1018B00012F4D7DFFACF583118F0AA27BB278827B0
:1018C000583028F0AB2FB82F88275850F9CF552320
:1018D00029F08695B795A7955A95D9F7502D51259A
:1018E00072F0CBDF38F46795F795E795739513F4AD
:1018F00020C0B7DF3EDF5F910895D8F7FBCFEA1B2A
:10190000FB0B680B51F010F40094BBDF662392F3DD
:10191000EE0FFF1F661F7A95CBF7EE27FF2766278E
:1019200077275F910895EFEFFFEF6FE77FEF5F910C
:101930000895EFEFFFEF6FE77FE75F9108955F9303
:101940002ADF703851F3903841F301240894791F4D
:1019500023F41CF300203AF3ECCF0F921F932F9344
:101960003F934F93112722279927689FA0018F9FAC
:10197000302D410D591F6B9F300D411D591F8E9FFA
:1019800027D0BF9F25D06A9F23D0BE9F1DD0AF9F79
:101990001BD0AE9F110D291F391F491F591FE32F5F
:1019A000F42F652F522F4F913F912F911F910F9040
:1019B00066232AF0550FEE1FFF1F661F02C07395A6
:1019C0004BF2CDDE5F910895100D211D391F02C02D
:1019D000200D311D491F591F08955F93DCDE7038BB
:1019E00021F411200AF49FCFA4CF903809F495CFA9
:1019F00001240894970B1BF4D4F30020F3CF792F24
:101A00001F932F933F934F9311241127222733279E
:101A10004427552790E2AE17BF078607410730F0ED
:101A2000AE1BBF0B860B410B089401C08894551F59
:101A3000221F331F111CAA1FBB1F881F441F9A950A
:101A400051F7F901612D4F913F912F911F9166231D
:101A500032F0550FEE1FFF1F661F7A9543F27FDEAF
:101A60005F91089599239AF0772342F0971748F0F1
:101A700029F4AE17BF07860720F031F098948894B8
:101A80000895989408940895189488940895772355
:101A9000C2F7971798F3A9F7EA17FB07680788F3C7
:101AA00099F3ECCF94D024975F939F81992311F4FD
:101AB000289633CF12F428963CCF4F9342E48E8180
:101AC000BD81AC8188839983AA83BB83FD01BC015E
:101AD000AC81BD818E819F8180DF88819981AA81BF
:101AE000BB81DDDE60DE7A9544DE88819981AA8142
:101AF000BB81AE27A87F21F4BF178607970729F07F
:101B00004A9519F0DF01CB01DDCF4F915F91289607
:101B10000895F195E195F0400895F09560957095E0
:101B2000E195FF4F6F4F7F4F08956F2F660F660B44
:101B3000762F08950024112490E1AA0FBB1F001CEA
:101B4000111C0E1A1F0A18F40E0E1F1E01C0A160F0
:101B50009A9599F7FD01D001089512D0EBDF0EF4AC
:101B6000D8DF0895E894B7FF04C0A095B09511960A
:101B70006894F7FDCEDFDEDFFD010EF4CADF0895C5
:101B8000E894F7FF02C0C5DF6894B7FF06C0A095D0
:101B9000B095119600F8039400FA0895ED93FD9323
:101BA0006D937C930895E881F9816A817B81089522
:101BB000A881B9818A819B810895E883F9836A832A
:101BC0007B8308957A936A93FA93EA9308959A939C
:101BD0008A93BA93AA930895182E862F612D192EF1
:101BE000972F712D1B2EBF2FF12D1A2EAE2FE12D09
:101BF0000895309760407040089500240A160B063F
:101C0000080609060895EA17FB076807790708958B
:00000001FF
